S011000042696B654369636C6F2E73726563AE
S1130000782200202D22000029220000292200004D
S113001000000000000000000000000000000000DC
S11300200000000000000000000000002922000081
S11300300000000000000000292200002922000026
S11300402922000029220000292200002922000080
S11300506101000029220000292200002922000059
S113006029220000611B0000711B0000811B00009D
S1130070911B0000A11B0000B11B0000010F000038
S1130080110F0000210F0000292200002922000086
S113009029220000000000000000000029220000C6
S11300A029220000000000002922000000000000B6
S11300B00000000010B5064C2378002B07D1054B37
S11300C0002B02D0044800E000BF0123237010BDC0
S11300D06800002000000000AC480000084B10B588
S11300E0002B03D00749084800E000BF0748036815
S11300F0002B00D110BD064B002BFBD09847F9E72D
S1130100000000006C000020AC480000AC48000077
S1130110000000001723002A01D0180070478B004C
S1130120064A9B58002B03D0834205D01D23F4E7D5
S1130130890088500023F0E70023EEE7DC0000206C
S11301401723002901D01800704700221F2800D867
S1130150024A01238340D3600023F4E700180040DF
S113016070B50022104B1A70002310491F25104E41
S11301700D4C0AE00D4908E023780133DBB223700B
S11301800F2B10D800211F2BF4D92800184001226E
S1130190824008691042EFD00A619B009B59002BF2
S11301A0EAD09847E8E770BDD80000200018004066
S11301B0DC000020044A137802210B4313705378A7
S11301C05BB2002BFBDB70470018004000B583B026
S11301D0124A936940210B43936101A900230B70D8
S11301E005200F4B984705200E4B98470E4A13786D
S11301F001210B43137053785BB2002BFBDB0B4BD9
S113020019004031002204C39942FCD11022084B4A
S11302101A60084B984703B000BDC0460004004074
S1130220D12000004520000000180040DC00002020
S113023000E100E0B50100000023036043600122F7
S11302400272427283720233C3727047F0B583B094
S113025005000C0001A900234B70CB7023790B70AF
S1130260237A8B702078154B984700201F2D00D8D7
S1130270134807222A409200E77AA37A002B01D080
S113028008231F43EB089B00C31899690F26964067
S1130290B14397403A000A439A61637A002B06D12E
S11302A043690122AA409343436103B0F0BD42690C
S11302B00123AB4013434361F7E7C046C921000063
S11302C00018004010B51E4AD36904210B43D361C2
S11302D01C4B2022FF321A831A7D0523D20701D436
S11302E0180010BD03781B02C0229200134041780D
S11302F0C901FF220A401343817849001E220A40A3
S11303001343C27892048021C9020A40134302793C
S11303101204C02189020A4013430A4A53609368B5
S11303205B035B0F084908249C400C8093684B8056
S113033043780B71138BDB05DB0F1B01D0E7C04641
S113034000040040004000418400002030B5040057
S1130350224A1088538843438B4206D2802292015A
S113036018201F4BCB1893420ED81E4B5D68802279
S1130370D2022A435A602022FF321A831B7DDB07F4
S113038003D4184B5D60052030BD452C22D8A30052
S1130390154AD3589F46134B1B8BDB0503D5114BD2
S11303A05D601020F0E7890849000E4BD96103E035
S11303B0890849000B4BD961A52000020443094B6D
S11303C01C80190001220B7D1342FCD0054B5D609B
S11303D00020D9E7034B5D601720D5E78400002097
S11303E000C07FFF0040004144450000F8B5254BA4
S11303F01D885B886B431824834201D22000F8BD1A
S11304006B1E1842FAD1013C9542F7D31E4B1B7D5B
S1130410123CDB07F2D51D4C1B4B1C801D00012434
S11304202B7D2342FCD02024FF34174B1C83002A4D
S113043022D0012305009D430023571E09E0CE1856
S11304407678360234432C8002339BB202359A42CA
S113045004D9CC5CBB42F2DBA4B2F4E7094B1B79B0
S11304600024002BCAD13F2AC8D80022010004204E
S1130470074B98470400C1E7024B1B790024002B6B
S1130480F3D0BBE7840000200040004144A5FFFFF7
S11304904D03000070B5184B1D885B886B4318240E
S11304A0834201D2200070BD6B1E1842FAD1013C78
S11304B09542F7D3114B1B7D123CDB07F2D5202468
S11304C0FF340E4B1C83002A14D0012398430023CD
S11304D0561E04E002339BB202309A4208D90488C3
S11304E0A4B2CC54B342F5DACD18240A6C70F1E707
S11304F00024D7E70024D5E7840000200040004111
S1130500134B1A885B8853431821834201D2080095
S113051070479200013A1042F9D10E4B1B7D1339FA
S1130520DB07F4D50B4B2022FF321A8380084000EE
S1130530D861094A1A80190001220B7D1342FCD0AC
S1130540044B198B1C200140481E81418900DEE7C1
S1130550840000200040004102A5FFFFF0B5DE4604
S113056057464E464546E0B587B08046049116008E
S11305701F000022002300218B463F24012021007C
S1130580009601975C4603944446059413E02024A6
S1130590641A0500E540A84614E0009C019D121B66
S11305A0AB415C464D462C43A346039C45462C4335
S11305B00394013925D3202464420C19E7D405009F
S11305C0A540A84604008C40A14692185B41140043
S11305D01D00059E4F463E40B446049E47463E409D
S11305E0B246664657463E4303D0060026433200D1
S11305F02B00009C019D9D42DBD8CED19442D8D8DB
S1130600CBE7039B5846190007B03CBC904699467B
S1130610A246AB46F0BD10B54908402300248142F0
S113062002D2180010BD1C00091A631C9BB2884238
S1130630F9D94023FF2CF4D814800023F1E70000FB
S1130640F0B583B00F00160008AA117804004C43DB
S11306504022BC4202D9100003B0F0BD002B14D1DB
S1130660020008000021194CA04701003A000023B1
S11306700020174CA04700220123121A8B41120CB0
S11306801B041A4332800022E5E70022012BF9D132
S11306900A00002300210D4CA04702000B00009229
S11306A00193380000210A4CA047050080239B01D8
S11306B040229842CFD8790FF800009A019BA047B6
S11306C0EA00821AD2B252032A43DBE799250000DA
S11306D05D05000010B582B004000E4B1B78002BA2
S11306E007D0002905D10B4B5B78834210D01D2025
S11306F00CE001A90C701320074B98471320074BFB
S11307009847044B5C7001221A70002002B010BD9F
S11307100020FBE78C000020D120000045200000D1
S1130720404B984231D00AD93F4B98424DD03F4B71
S113073098425AD03E4B984237D0002070473D4BE8
S113074098420CD03C4B9842F7D1012917D000298C
S11307505DD0022915D0032915D00020EEE7012928
S113076007D0002951D0022905D0032905D0002043
S1130770E4E73248E2E73248E0E73248DEE732486D
S1130780DCE73248DAE73248D8E7012907D0002904
S11307903FD0022905D0032905D00020CEE72D48FB
S11307A0CCE72D48CAE72D48C8E7012907D000291E
S11307B031D0022905D0032905D00020BEE72848FE
S11307C0BCE72848BAE72848B8E7012907D0002938
S11307D023D0022905D0032905D00020AEE7234801
S11307E0ACE72348AAE72348A8E7012907D0002952
S11307F015D0022905D0032905D000209EE71E4804
S11308009CE71E489AE71E4898E71E4896E703208F
S113081094E71D4892E71D4890E71D488EE71D4860
S11308208CE7C0460010004200180042001C004241
S11308300014004200080042000C004203000500BE
S113084003000600030007000300010003001E006C
S113085003001F0002000D0002000E0002000F0042
S113086003001100030012000300130005003F0001
S113087005003E00050052000300170003001800A5
S1130880030019000300040002000C000300100020
S1130890050053000300160030B587B00B4B6A46C1
S11308A032CB32C232CB32C2009B83420BD0012303
S11308B09A0069465258824206D00133062BF7D17A
S11308C0002007B030BD0023D8B2FAE75C46000030
S11308D0094B98420CD0094B984207D0084A002390
S11308E0904201D018007047023302E0012300E077
S11308F00023DBB2F6E7C046002000420024004299
S11309000028004210B5040008004F4B984700230C
S1130910236080004D4A82586260A372E37223739D
S113092063722372E36123626362A3622375637556
S1130930A375E3752376637623746374A374E374F5
S11309402C22A3540132A3540132A3540132A354E0
S11309500132A3540132A3540132A3540132A354EB
S11309600132A3540132A3540132A3540132A354DB
S11309700132A3540132A3540132A3540132A354CB
S11309800132A3540132A3540132A3540132A354BB
S11309900132A3540132A3540132A3540132A354AB
S11309A00132A3540132A3540132A3540132A3549B
S11309B00132A3540132A3540132A3540132A3548B
S11309C00132A3540132A3540132A3540132A3547B
S11309D00132A3540132A3540132A3540132A3546B
S11309E00132A3540132A3540132A3540132A3545B
S11309F04132A354A365A3670132A354E365E367BB
S1130A000132A35423661A3AA3501B32A3546366DB
S1130A10173AA3501832A354A366143AA3501532BC
S1130A20A354E366113AA3501232A35423670E3A37
S1130A30A3500F32A35463670B3AA35001210C3225
S1130A40A1540132A35410BDD1080000884600000F
S1130A50F0B5DE4657464E464546E0B591B00190A6
S1130A600C0015000800C34B984703000100C2485E
S1130A70026A9E00C14FF7593A43026222681C2061
S1130A80920706D511B03CBC90469946A246AB46A7
S1130A90F0BD226801271740F4D1B9483258172015
S1130AA02E68B242EED36E68B242EBD3E86982425A
S1130AB000D2B9E1286A824200D2B7E1686A824270
S1130AC000D2B5E1A86A824200D2B3E198229446EA
S1130AD0AC4462460892002003E001300132082849
S1130AE008D01678002EF8D0A64E765C8642F4DC48
S1130AF01720C7E70022029280204004844602E0C7
S1130B000132042A0ED0A818007C0128F8D19E488E
S1130B10405C904200DA8FE160469040029E0643BA
S1130B200296EDE79D32AA5C002A04D080221201CD
S1130B300299114302912A7A511E8A419200069227
S1130B406A7A012A22D0904AD25C11000592352299
S1130B50AA5C8A4200D379E12C21695C0F2900D96F
S1130B6074E1287B0A90E87A0B902D208246AA44EF
S1130B70002004970EAE0796C0263601B14684467F
S1130B80A046280055460993824635E0069911434C
S1130B900691D8E792024F463A400A4319798B46A8
S1130BA003215F4639400A4316435A7952016021B2
S1130BB00A40324399790902C026B6000E40164312
S1130BC0DA791203E021C9010A4016433443039A37
S1130BD014432043624607995050042A2AD09A7C31
S1130BE00599914200D831E1597A0A3504239B468C
S1130BF0DC440F2900D929E10906F0231B0519401B
S1130C002B002E783604FF200004064068788024E8
S1130C10002800D1049C987808270397002801D164
S1130C2004980390D878834610205F46002FB1D1F2
S1130C300498AFE744465546099B524AD25C914614
S1130C405146503150464130002700220126B24619
S1130C500226FF36B34680267602B046A4461C0020
S1130C604B460FE00678002E07D0934200D8E7E009
S1130C70022E14D0564696403743013201310230D9
S1130C80082A10D00E78002EECD0934200D8D5E07C
S1130C904646964037430678002EE9D1EDE75E4696
S1130CA096403743E9E79946230064466A7E120179
S1130CB030211140287E0722024011430022802067
S1130CC040020E0002E00132042A0BD0A918097D6B
S1130CD00029F8D00599914200DCB3E0010091406D
S1130CE00E43F0E7B246019802000432343000218A
S1130CF002C28242FCD100220198426382639900BD
S1130D00224A88500460A022A95C643A81540DA947
S1130D10AA7A0A701E4AD65C30001E4B98473000EF
S1130D201D4B98474B46002B3CDD2E00583698331C
S1130D309846A84401239946AB464546A046089CDC
S1130D4003E001340436AC422AD02378002BF8D0D7
S1130D500CAB4A469A7000230CAAD37013002022CD
S1130D60B21812781A704A465A70307819000B4B30
S1130D709847E6E7D10800000004004074460000EC
S1130D808846000094460000804600001C010020B4
S1130D9084460000D120000045200000C921000045
S1130DA044465D460A9B1B030B9A12021343029AA4
S1130DB0134323600422A3681A42FCD1FF23237146
S1130DC00422A3681A42FCD16B461B7E63710E9BFE
S1130DD0E3600F9B2361A7611D4AA3681342FCD102
S1130DE05346E3631022A3681A42FCD12B68636361
S1130DF0184AA3681342FCD16B6823640598002841
S1130E0022DD1C350021144E32008A40A3681A42A8
S1130E10FCD104CD0B0010339B00E3185A60013160
S1130E208842F1DC00202DE617202BE6172029E666
S1130E30172027E6172025E6172023E6172021E6AA
S1130E4017201FE617201DE600201BE6172019E6D1
S1130E504000020080000400000108009200831892
S1130E605960034BD358426B1343436300207047CC
S1130E709846000070B504000D000068094B9847BF
S1130E80094B1B5C1F221A4001239340074A13603D
S1130E90AD00074BEA58A36B1343A36323689A621C
S1130EA070BDC046D1080000C846000000E100E063
S1130EB098460000F0B5C64600B580000E4BC758F2
S1130EC03B68DE6ABB6B7A6B13401E4000240B4BFD
S1130ED0984602E00434302C0AD04346E5583542A3
S1130EE0F8D03B195B68380098473B68DD62F1E74E
S1130EF004BC9046F0BDC0461C010020984600008A
S1130F0010B50020014B984710BDC046B50E000037
S1130F1010B50120014B984710BDC046B50E000026
S1130F2010B50220014B984710BDC046B50E000015
S1130F30F0B5C64600B50C00904600280FD1002A33
S1130F4011DD8F18094E0A4D306821002B6898472F
S1130F500134BC42F8D1404604BC9046F0BD0123A4
S1130F605B429846F7E78046F5E7C046300100202B
S1130F7028010020F0B5C64600B50E001500013862
S1130F80022810D8002A11D000240C4B98460C4F8C
S1130F9043461868315D3B689847002808DB0134F4
S1130FA0A542F5D106E00124644203E0140001E007
S1130FB001246442200004BC9046F0BD30010020AE
S1130FC02C010020024A1368013313607047C046A5
S1130FD01002002070B582B005000E0000226B469E
S1130FE0DA80064C6B46991D2800A0470028F9D1E9
S1130FF06B4606331B88337002B070BDED180000D9
S113100070B505008CB2034E21002800B0470028BB
S1131010FAD170BDC118000010B50B4B1B6A1B063A
S113102003D50A4B1B7F022B00D010BD084B1B7845
S1131030002B02D10021074A11600133044A1370C6
S11310400548064B9847F0E700440041E8010020BA
S11310505402002010020020CC4600008D35000010
S113106010B5184B8022D2051A6000225A60FF2165
S1131070198100219A72DA72962080011862012087
S1131080242418550134185525301A5401301A54A3
S11310909A6205301A5401301A545A611A82DA7667
S11310A019761977597613229A7659778022520342
S11310B0DA60054A1A63054A5A63012252429A6366
S11310C0DA6310BD6801002003000400030005007A
S11310D070B5154C154B1C60154A164B1A60164A10
S11310E0164B1A60164A17492000174B9847174E9B
S11310F0336898680021164DA84733685868002162
S1131100A84725682800134B98471F2318401E3B07
S11311108340114A13602268D369002BFCD12B68E9
S1131120022213432B6070BD3401002030010020E3
S1131130011000002C010020D50F00002801002020
S113114068010020000800427D1500000400002012
S1131150A1350000311B000000E100E00022C26064
S1131160002383618260436002604261838403627E
S11311700333037770470000F0B5C64600B582B06C
S113118005000C0016000B680093888C101A1C4B89
S113119098471C4F0099B8470190236AE81A1A4BE4
S11311A09847011C0198B8471849194B98471949A1
S11311B0B847FC218905B847071CA6842562A168A5
S11311C0154B9847002800D0A760114B9846134947
S11311D0009898476169124B9847061C6061E76064
S11311E06368E81A084B9847011C301CC0470D4936
S11311F0044B9847206102B004BC9046F0BDC04641
S1131200D9320000212D0000793300000000204174
S11312104129000000A00C477125000000007A4419
S11312201D26000000BA5B4AF0B5CE46474680B59D
S113123083B00400124E13490069B047124DA84709
S113124083B299460F49A068B047A84783B298462D
S11312500C49E068B047A84787B2237F01930B4944
S11312606069B047A84780B200904B4642463900B7
S11312700748084CA04703B00CBC90469946F0BD03
S1131280212D00000000C842ED25000000007A4432
S1131290D84600009934000010B5154B1B6ADB00DA
S11312A00BD5144B1B7F022B11D0032B06D0012B23
S11312B013D0802212030E4BDA6110BD00220E4BB4
S11312C01A700C48022303770C4B9847F1E709483E
S11312D001230377094B9847EBE7064C2000084BA2
S11312E098470022044B1A702000044B9847E0E70B
S11312F000440041E80100205402002029120000AB
S11313005D11000010B50248024B984710BDC0465D
S1131310E801002029120000F0B587B003AC2000DA
S11313200C4DA8476846A8471C2303930027676011
S113133001252572E57221000820074EB0470723D6
S1131340009301976B461D72E57269460720B0470A
S113135007B0F0BD390200004D02000070B5002254
S113136008210748074DA84700210820064CA0473C
S1131370002207210548A84700210720A04770BD87
S1131380991200001501000041010000191000002D
S113139070B5AAB0114E01AC31002000104B984733
S11313A00123A3720433E372FA23DB006360022394
S11313B0E361FA239B0023620A4D220031002800D6
S11313C0094B98472A68022193681942FCD1136893
S11313D002210B4313602AB070BDC04600200042B6
S11313E005090000A8010020510A000070B5094C4D
S11313F0082209492000094DA8470922084920006C
S1131400A84708212000074DA84709212000A84724
S113141070BDC046A8010020C50F00005D0E00008D
S113142005130000750E0000F8B506001C4D1D4F95
S11314301D4C40222900C820C001B847207005284F
S1131440F7D0174B19004031002002E001338B42E2
S113145004D01A78FF2AF9D11870F7E7104C2078D5
S1131460124FB847124D1349A847B0606078B84787
S11314701049A8473061A078B8470F49A8473060A1
S1131480E078B8470D49A8477061237973606379A0
S11314903362A37933770023B3840023F360F8BD68
S11314A01402002095040000550200207933000046
S11314B0412900000000C84200401C4600007A4454
S11314C0F8B50700C826F6011B4D1C4C3000A84790
S11314D020700528FAD01A4B1900403100221A70E6
S11314E001338B42FBD1164C164DB868A8476426CD
S11314F0704320703869A847704360703868A84703
S11315000001A0707869A84718235B425843E07033
S11315103B7923712023FB181B7863713B7FA371F4
S11315202600094D054C40223100C820C001A847BF
S113153020700528F7D0F8BD0105000055020020F1
S113154014020020ED250000ED03000000B583B077
S113155000226B461A70074B5B68DB061B0F69465B
S11315608B70CA700A714A706846034B984703B07F
S113157000BDC04600400041C5020000F0B5DE4693
S113158057464E464546E0B591B005000C0016009E
S113159029600800BC4B9847020023680520DB073C
S11315A006D511B03CBC90469946A246AB46F0BD68
S11315B0236817309B07F4D4B449086A971C0123A5
S11315C0BB4003430B620FA92D27F35D0B7014324C
S11315D0D3B202931800AE4B98470298AD4B98478C
S11315E0F05D0021AC4B9847F37A6B712423F35CD4
S11315F0AB712523F35CEB71F37E2B72337F6B723B
S11316002B6898461800A04B9847143000220E23EC
S113161006A98C4663441A80328A02928023DB0135
S11316209A4200D19EE00FD9C023DB01029A9A426C
S113163000D192E080231B029A4200D01FE10323D1
S113164006930023079308E080239B019A4200D06D
S113165015E1102306930F3B079333680593F36852
S1131660039373690493337E9B462623F35C9A4663
S113167073689946002B00D1A0E080235B0599454F
S113168000D184E0737E002B02D0B37E4246937374
S11316902A68029FD369002BFCD10E3306AA944614
S11316A063441B8842469381059B039A1343049A1F
S11316B013434A4613431F435B461B021F435346CF
S11316C05B071F432723F35C002B01D104331F4323
S11316D0737E9B02327F52021343727F12021343C2
S11316E02422B25C520413432522B25C1204134335
S11316F0B17AF27A114319433389FF2B00D181E087
S113170080225204174319432C23F35C002B03D18A
S1131710624B9B789B0701D580231F432A68D369BA
S1131720002BFCD1434659602A68D369002BFCD1B5
S113173043461F600EAB80221A7000225A70DA7082
S11317409A70336B0A93736B0B93B36B0C93F36BB9
S113175002930D9300270AAE63E008230693073B28
S113176007937AE733680593F368039373690493E3
S1131770337E9B462623F35C9A4673689946002B76
S113178018D080235B05994501D0002025E027234C
S1131790F35C002B00D075E7336A1F00C0B2404BE6
S11317A0984701000E2206AB9C46624438003D4B2C
S11317B0984712E008230693002307932723F35C3A
S11317C0002B0ED0069B0093079B0E2206A98C4685
S11317D06244B16A306A344FB847002800D0E0E66A
S11317E050E7336A1F00C0B22D4B98470100069B97
S11317F00093079B0E2206A88446624438002A4FB1
S1131800B847EAE7F37E002B00D17DE78023DB04B1
S11318101F4379E72000254B984707E00137042F41
S11318200DD0F9B2BB0098590028F3D0431CF5D071
S11318300EA90870000CC0B21D4B9847EEE70023B8
S1131840EB602B616B61AB61EB612B62AB626B6232
S11318500022EB85AB853033EA540133EA5401337B
S1131860EA540133EA542868074B984704001149A5
S1131870114B9847A400114BE550002091E610232A
S1131880069300230793E8E699080000000400404B
S1131890D120000045200000D506000000200041B2
S11318A0ED2000001706000041060000210700009B
S11318B0C92100005D190000F51A0000580200203B
S11318C0C2791C23002A01D118007047C28D92B23C
S11318D0173B002AF8D10368DA69002AFCD119857C
S11318E002211A7E0A42FCD00023EDE782791C23F0
S11318F0002A01D118007047828D92B2173B002A4A
S1131900F8D10268107E4007F4D5D369002BFCD1CE
S1131910538BDBB298061DD0980703D5022353835B
S11319201833E7E7580703D5042353831A33E1E751
S1131930D80703D5012353831233DBE7D80603D535
S1131940102353833233D5E79B0603D520235383D7
S11319502133CFE7138D0B800023CBE7F8B580004C
S1131960624BC5582C68E369002BFCD1237EA67D0D
S11319701E403023EB5C3122AF5C1F40F30722D5BD
S1131980EB8D9BB2002B1CD0AA6A1378DBB2511CDE
S1131990A962697901290ED09BB2DB05DB0D238591
S11319A0EB8D013B9BB2EB85002B0CD101332375EE
S11319B00133A37507E0517809020B430232AA628E
S11319C0EBE701232375B30706D502232375002211
S11319D03133EA54FB071AD4730765D5AB8D9BB238
S11319E0002B5FD0638BDBB21A0714D43F22134061
S11319F0002B34D09A0711D51A223223EA54303BF3
S1131A0063837B0750D528006B6998474CE0280016
S1131A10EB689847E0E737221340E9E75A0705D512
S1131A201E223223EA542E3B6383EAE7DA0705D504
S1131A3013223223EA54313B6383E2E7DA0605D505
S1131A4042223223EA54223B6383DAE720221A42F9
S1131A50D7D021323223EA54123B6383D1E7238D5A
S1131A60DB05DB0DDAB2696A0A706A6A511C6962C5
S1131A706979012910D0AB8D013B9BB2AB85002B5A
S1131A8012D10433237500222E33EA54BB070BD53D
S1131A9028002B69984707E01B0A53706B6A0133CF
S1131AA06B62E8E704232375F30604D5102323753A
S1131AB02376FB060ED4B30604D5202323752376A0
S1131AC03B070BD4330704D5082323752376BB06C1
S1131AD008D4F8BD2800EB699847ECE72800AB6907
S1131AE09847EFE72B6A28009847F2E7580200204E
S1131AF070470000F0B50A4B1B78002B0CD1094F3E
S1131B00094E0A4D0024DE515A1914600433182B6F
S1131B10F9D10122024B1A708000024BC150F0BD72
S1131B208E00002090000020F11A000058020020CE
S1131B3000B583B009236A4613700133537001332F
S1131B4093700133D3700133137101335371034B19
S1131B5098476B46185603B000BDC046990800006C
S1131B6010B5024B1B680020984710BD9000002060
S1131B7010B5024B5B680120984710BD900000200F
S1131B8010B5024B9B680220984710BD90000020BE
S1131B9010B5024BDB680320984710BD900000206D
S1131BA010B5024B1B690420984710BD900000201B
S1131BB010B5024B5B690520984710BD90000020CA
S1131BC00C4B1B68002B06D1EFF31083002B07D0BE
S1131BD00022094B1A70074A1368013313607047D7
S1131BE072B6BFF35F8F0022044B1A700132024BAE
S1131BF01A70F0E7A8000020AC00002000000020CC
S1131C00084B1A68013A1A601B68002B09D1064B6D
S1131C101B78002B05D00122044B1A70BFF35F8F91
S1131C2062B67047A8000020AC000020000000202D
S1131C30F0B583B001AC012565700027A77025704D
S1131C4021001320064EB04780221203054B9A61EF
S1131C502770657021001C20B04703B0F0BDC0465A
S1131C60691C00000044004100B583B001AB802230
S1131C701A700A785A704A789A708A78DA70190059
S1131C80014B984703B000BDC921000010B50828D6
S1131C9003D880001B4B1B589F46002030E01A4B92
S1131CA018692DE0194B1B6A9B059B0F1848D840F7
S1131CB026E0154B586923E0134B1B6800209B0753
S1131CC01ED512491022CB681A42FCD00E4B1B6859
S1131CD05B0701D40F4813E000200F4B98470A4BD1
S1131CE09B681B041B0C58430AE05023074AD35C2F
S1131CF000205B0704D5044BD86801E08020000273
S1131D0010BDC046EC460000B000002000080040B2
S1131D1000127A00006CDC02ED20000070B50C4962
S1131D200B6A0478857840780122104080014026AF
S1131D30B34303432A40D201802083431343032245
S1131D40224012020348034013430B6270BDC04695
S1131D5000080040FFFCFFFF082803D88000254B43
S1131D601B589F46172044E0234A136A02210B4361
S1131D70136200203DE0204A936902210B439361E2
S1131D80002036E01C4A138A02210B4313820020F0
S1131D902FE0194A938A02210B439382002028E002
S1131DA016490B68022213430B60134B9A841900E3
S1131DB00E32CB681A42FCD0104A91680E4BD9629D
S1131DC052689A6200229A8419001032CB681A422F
S1131DD0FCD00A4B1B689BB2074A9384002008E09E
S1131DE0054944228B5C022003438B54002000E00D
S1131DF0002070471047000000080040B000002099
S1131E0030B585B0C222D2001A4B9A601A4A536880
S1131E101E218B43536001236A4613700024174D1F
S1131E20E0B26946A8470134252CF9D103A800245F
S1131E304470012585700470114B98470620114B9E
S1131E409847114B9847114B1C725C729C72DC7260
S1131E5001956B465C7006236A46137014725472C3
S1131E60694600200A4B984700200A4B984705B062
S1131E7030BDC0460008004000400041D1200000B1
S1131E801D1D0000591D0000991E000000040040A3
S1131E90BD1E0000751F0000064A936908210B430C
S1131EA093610122044B1A7019000B781342FCD180
S1131EB07047C04600040040000C004070B50600A6
S1131EC004000D782D0205434B78002B02D08023AB
S1131ED0DB021D434B7A002B02D080231B031D43DE
S1131EE04868012810D9431E184234D1022830D939
S1131EF00223002201325B009842FBD812023243D3
S1131F00140080235B031D430B7A002B02D0802333
S1131F109B031D43134A53785BB2002BFBDB124B2C
S1131F209847124B1E700F4A53785BB2002BFBDBB1
S1131F300C4B9C601A0053785BB2002BFBDB094A04
S1131F405368802149020B401D435560084B984754
S1131F5070BD0022D2E70402344380239B021D4358
S1131F60D2E7C046000C0040C11B0000080C004032
S1131F70011C000010B504000B4A53785BB2002B1F
S1131F80FBDB0A4B98470A4B1C70074A53785BB239
S1131F90002BFBDB044A516880235B020B43536034
S1131FA0044B984710BDC046000C0040C11B000004
S1131FB0040C0040011C000070B504001A4A537858
S1131FC05BB2002BFBDB194B9847194B1C70164A6C
S1131FD053785BB2002BFBDB134E7068C004C00E59
S1131FE0144B98470500124B1C707668F602F60FE6
S1131FF0114B1C700C4A53785BB2002BFBDB0A4B71
S11320009C682402240C0D4B9847002E07D1012C08
S113201007D9210028000A4B9847050001E0013444
S1132020E540280070BDC046000C0040C11B000004
S1132030040C00408D1C0000080C0040011C000032
S11320400D24000010B50400064B9847064B1C7085
S1132050064A53888021C9010B435380044B984797
S113206010BDC046C11B0000020C0040000C004023
S1132070011C000010B504000F4B98470F4B1C7057
S11320800F4A53881B05180F53880E490B40538081
S113209053880D490B40538011008022D2014B8894
S11320A01342FCD106494A880302064802401343FE
S11320B04B80064B984710BDC11B0000020C00402A
S11320C0000C0040FFF0FFFFFFBFFFFF011C0000FA
S11320D010B50C7824020443024B9847A4B2024B77
S11320E05C8010BD75200000000C004010B5040099
S11320F0064B9847064B1C70064B5C882405240F3E
S1132100054B98472000054B984710BDC11B0000A4
S1132110020C0040000C0040011C0000B91F00002C
S113212030B5D378002B35D11378802B29D01B06FA
S113213080246402234354780225AC4306D1947866
S1132140002C20D18024A402234341605478013C14
S1132150012C1CD90D042D0CA024E4052C431C4394
S113216084620D0CD02424062C431C438462D4784E
S1132170002C22D15B031CD59378012B1ED0416126
S113218017E00023D7E7C024E4022343DDE70D4C26
S11321902340DFE741600C04240CA023DB05234328
S11321A083620C0CD0231B0623438362D378002B59
S11321B003D15378013B012B02D930BD8161F8E78B
S11321C08160FAE7FFFFFBFF10B50A00C109002395
S11321D0002904D14309DB0105498C4663441F24CB
S11321E02040012181401800024B984710BDC04691
S11321F000440041212100007047000010B5054B48
S11322009847054B9847054B9847054B9847054B0E
S1132210984710BD011E0000311C0000F921000088
S1132220CD010000F9210000FEE70000F8B52A4ABC
S11322302A4B9A4211D01A00294B9A420DD2294AAC
S113224003339B1A9B0801339B0000222348224935
S11322508C58845004329A42FAD1234A234B9A422E
S11322600AD2D34321495B1803218B4304339B18BF
S1132270002102C29342FCD11D4AFF211D4B8B4316
S11322809360FD3990235B001B4AD1501B4AD378DD
S11322900325AB4302242343D370D3780C27BB43D9
S11322A008263343D370164B987B30229043202268
S11322B010439873997BB943314399739A7BAA432A
S11322C022439A730F4A536880210B4353600E4B89
S11322D098470E4B9847FEE7AC48000000000020EA
S11322E06800002004000020680000207402002020
S11322F000ED00E0000000000070004100500041CB
S11323000048004100400041413400004D230000DA
S11323100300064A1268002A04D0044A1068C3184D
S1132320136070470249014A1160F6E7C8000020B3
S11323307822002001204042704780239B014B609B
S113234000207047012070470020704770B51E4B75
S113235098471E4B98471E4B98471E4B98471E4C58
S113236020001E4B98470125257720001C4B9847D9
S11323701C4B98471C4B98471C4B98471C4B984741
S11323801C4B1D70BFF35F8F62B600221A4B1A807C
S11323901C002388002B12D02D2B03D00022164BB7
S11323A01A80F6E7154B1A78012AF2D992B2144B27
S11323B018680949134B98470748134B98472D222F
S11323C00D4B1A80EEE7C046FD21000061100000AD
S11323D0D11000004D150000E80100205D1100003F
S11323E02914000091130000ED13000019130000DC
S11323F05D13000000000020CC00002054020020E7
S11324001002002079110000C114000000224308CA
S11324108B4274D303098B425FD3030A8B4244D3A8
S1132420030B8B4228D3030C8B420DD3FF220902EA
S113243012BA030C8B4202D31212090265D0030BA9
S11324408B4219D300E0090AC30B8B4201D3CB039F
S1132450C01A5241830B8B4201D38B03C01A5241E1
S1132460430B8B4201D34B03C01A5241030B8B42E3
S113247001D30B03C01A5241C30A8B4201D3CB02CE
S1132480C01A5241830A8B4201D38B02C01A5241B3
S1132490430A8B4201D34B02C01A5241030A8B42B6
S11324A001D30B02C01A5241CDD2C3098B4201D3CE
S11324B0CB01C01A524183098B4201D38B01C01A4C
S11324C0524143098B4201D34B01C01A52410309C3
S11324D08B4201D30B01C01A5241C3088B4201D372
S11324E0CB00C01A524183088B4201D38B00C01A1F
S11324F0524143088B4201D34B00C01A5241411A46
S113250000D20146524110467047FFE701B5002052
S113251000F006F802BDC0460029F7D076E7704700
S11325207047C0468446081C6146FFE71FB500F0AB
S1132530B5FB002801D40021C8421FBD10B500F02E
S113254047FB4042013010BD10B500F0A7FB002846
S113255001DB002010BD012010BDC04610B500F005
S11325609DFB002801DD002010BD012010BDC046E8
S113257010B500F053FB002801DC002010BD012041
S113258010BDC04610B500F049FB002801DA002058
S113259010BD012010BDC046F0B5CE464746150417
S11325A02D0C2E0080B50704140C3F0C9946030C27
S11325B07E435D43674363437F19340CE4199C46AF
S11325C0A54203D980235B029846C4444B46514339
S11325D043433604360C250C24046544A4195918C5
S11325E0491920000CBC90469946F0BD9E2110B5B7
S11325F0C905041CFFF7C6FF002803D1201C00F006
S11326004BFE10BD9E21201CC90500F0A9FC00F062
S113261043FE80231B069C466044F2E7F0B5C646A1
S11326204E024702760A7B0A4400C50FF7004800B1
S1132630984600B5240E2A00DB00000EC90FBC46E4
S11326408D4267D0221A002A00DCA5E000283AD186
S1132650002F00D193E0511E002900D0BCE00124DA
S1132660DB1B5A0146D59B019E09300000F0CAFECF
S113267005388640844200DD9DE0041B32002020A2
S11326800134E240041BA64033005E1EB341002423
S113269013435A0704D00F221A40042A00D00433EB
S11326A05A0129D50134FF2C00D181E02A009B0175
S11326B05B0AE4B25B02E405580AD20720431043E4
S11326C004BC9046F0BDFF2CE3D080213800C9043F
S11326D0084384461B2A00DD82E020206146D14065
S11326E0821A604690400200501E82410A439B1A9F
S11326F05A01B8D45A07CED1DE082A00FF2C3AD1A9
S1132700002E00D1AEE08023DB0333435B025B0A7F
S1132710FF24CFE7211A002952DD002831D0FF2CF5
S1132720B7D080203E00C0040643B4461B2900DD18
S1132730AAE020266046C840711A66468E403100E1
S11327404E1EB14101435B185901D3D50134FF2C0E
S113275000D187E0012278491A405B080B401343FB
S113276097E7002C00D0A7E0002B00D0B6E03B1E7A
S113277062D10026002273025B0AE4B29AE71400D5
S113278087E7002F4DD0481E002857D16344012409
S11327905A01AFD50224DDE7002A24D1621CD2B24B
S11327A0012ADEDDDE1B720135D5FE1A0D005CE761
S11327B02A0000237EE73300604A241A134068E7A6
S11327C0002963D1611CC8B201284EDDFF2949D01C
S11327D063445B080C005CE7FF2A41D00A0079E7F8
S11327E001229B1A84E7002C1DD0FF2822D08024CC
S11327F0E404524223431B2A00DD8AE01C00202506
S1132800D440AA1A93405A1E9341234362460400BB
S1132810D31A0D0025E7002E00D026E7002200245D
S1132820A9E70C0035E7002B4DD0D243002AEDD0A8
S1132830FF28E0D16346FF240D002AE7FF290FD0CB
S1132840010073E7002B61D0FF24002F00D120E7A3
S113285080224146D203114202D0164200D13B00ED
S1132860FF2416E7FF24002324E7002CEAD1002BE1
S113287058D0002F00D10CE763445A0100D439E743
S11328802E4A0C00134004E701215CE7002C1ED102
S1132890002B40D0C94300290BD0FF2836D01B2978
S11328A047DC1C002026CC40711A8B40591E8B41FA
S11328B023436344040047E7002B18D13B1E2DD06B
S11328C00D00FF24E5E63B0004000D00E1E6FF28CF
S11328D01CD08024E40449422343E0E7002F00D1C4
S11328E0D7E6DE1B72011FD5FB1A0D00D1E6FF24CB
S11328F0002F00D1CDE680224046D2031042AFD053
S11329001642ADD13B000D00FF24C2E66346FF240E
S1132910BFE601237AE73B000400BAE680260022E2
S1132920F603F0E63B00B4E6331E00D0E2E60022F4
S113293021E70123BDE7C046FFFFFF7DFFFFFFFB4B
S1132940F0B557464E46DE464546E0B544024300E0
S1132950C60F83B00F1C640A1B0EB24653D0FF2B64
S113296027D08022E400D20414437F2252429046AE
S11329709844002399469B467D027800FB0F6D0A1C
S1132980000E009324D0FF2846D080230021ED00C0
S1132990DB041D437F384746381A4F460F43BF00B8
S11329A0B9463300009A874F53404A46BA580193B8
S11329B09746002C4ED108239946F7339846FD3BA1
S11329C09B467D027800FB0F6D0A000E0093DAD15E
S11329D0002D26D1002001213300009A7A4F534064
S11329E04246101A4A460A439200BA581D009746B6
S11329F0009B2C009A468B465B46022B31D15346F2
S1132A00FF21002438E0002C17D104239946002329
S1132A10984601339B46AFE7FF20002D0BD10221DE
S1132A20DAE7280000F0EEFC431F9D4076235B426A
S1132A30181A0021AFE70321ADE7200000F0E2FC03
S1132A40431F9C4076235B421B1A984600239946F9
S1132A509B4691E70C239946F3339846FC3B9B46EF
S1132A608AE7032B00D1A5E05546012B00D081E075
S1132A700123002100242B406402C905600ADB07FE
S1132A800843184303B03CBC90469946A246AB4663
S1132A90F0BD80240023E403FF21EDE7FF2100249F
S1132AA0EAE70123591A1B2966DD019A1340002124
S1132AB00024E1E78023DB031C4238D01D4251D0BF
S1132AC01C436402640A3300FF21D5E763016C01EF
S1132AD0A3423BD21B260021013801251F004900D7
S1132AE05B00002F01DB9C4201D81B1B2943013EE4
S1132AF0002EF3D11C00631E9C410C4301007F3166
S1132B000029CEDD630704D00F232340042B00D01B
S1132B100434230103D501002C4B80311C40FE29D1
S1132B200DDD0123019AFF2113400024A4E7802333
S1132B30DB031C436402640A3300FF219CE7012386
S1132B40019AA401640AC9B2134095E71B1B1A2613
S1132B500121C2E7009B8B469A4600244CE763029E
S1132B60E5D500258024E4032C436402640A009B19
S1132B70FF2181E70195C1E723002020CB40411AC2
S1132B808C40611E8C411C43630704D00F232340F7
S1132B90042B00D00434630105D50123019A0121DB
S1132BA01340002468E70123019AA401640A134036
S1132BB0002161E78023DB031C436402640A53465B
S1132BC0FF2159E73447000074470000FFFFFFF777
S1132BD070B5420045024E024C00C30F6D0A120E3E
S1132BE0760A240EC90F0120FF2A06D0FF2C03D039
S1132BF0A24201D1B54206D070BD002DFCD1FF2CFC
S1132C00FAD1002EF8D18B4206D00120002AF3D14C
S1132C102800451EA841EFE70020EDE7F0B542008B
S1132C2045024C02C30F48006D0A120E640A000EDE
S1132C30C90FFF2A1ED0FF2821D0002A0AD16E42D4
S1132C406E41F6B200280FD1002C0DD10020002DCA
S1132C5009D005E0002801D1002C01D08B4211D00D
S1132C60012158420843F0BD002EF7D0012001395C
S1132C700843F8E7002DDED002204042F3E7002CA1
S1132C80DBD0F9E78242EBDC04DBA542E8D8002084
S1132C90A542E8D20121581E0843E4E7F0B54200FA
S1132CA04D024C004602760A120EC30F6D0A240E22
S1132CB0C90FFF2A16D0FF2C18D0002A0AD170425F
S1132CC07041C0B2002C15D0002805D00120013974
S1132CD00843F0BD002C13D0994214D001205B426C
S1132CE01843F6E70220002EF3D1E4E70220002D7A
S1132CF0EFD1E2E7002DE7D10020002EE9D0EDE787
S1132D00002DE9D1EAE7A24206DCDFDBAE4203D8BC
S1132D100020AE42DAD3DCE7012049420843D8E779
S1132D20F8B557464E464546DE46E0B547024600EE
S1132D3088467F0A360EC40F002E47D0FF2E24D0BB
S1132D40FB008027FF041F43002399469A467F3ED9
S1132D5043465D025800DB0F6D0A000E984643D0CF
S1132D60FF283BD0EB0080250022ED041D437F3873
S1132D703618731C41469B464B46614013430F2B48
S1132D8064D875489B00C3589F46002F42D108233E
S1132D909946063BFF269A46DAE74146022A28D09E
S1132DA0032A00D1CEE0012A00D0ACE0114000207B
S1132DB00022CCB24002D205400AE407104320436B
S1132DC03CBC90469946A246AB46F8BD002F15D1AF
S1132DD004239946033B00269A46B9E7FF200222C2
S1132DE0002DC5D00322C3E7002D19D100200122F4
S1132DF0BEE70124FF220C400020DBE7380000F08E
S1132E0001FB7626431F9F4000237642361A9946DB
S1132E109A469DE70C239946093BFF269A4697E775
S1132E20280000F0EFFA431F9D4076235B42181AF6
S1132E3000229DE780200024C003FF22BAE73D0062
S1132E405246ABE73D0021005246A7E73B0C9C46A7
S1132E502A04120C2B0C1400604665463F043F0CF8
S1132E607C4342435D437B43270C9B18FF18BA42C3
S1132E7003D980235B029C46654424043A04240C51
S1132E80121993015C1EA3413F0C920E7D191A4343
S1132E90AD0115432B0104D501235E466A081D408C
S1132EA0154332007F32002A25DD6B0704D00F233F
S1132EB02B40042B00D004352B0103D53200274BC3
S1132EC080321D40FE2A94DC0124A801400AD2B2BB
S1132ED00C406FE78020C003074207D0054205D1AC
S1132EE028434002400A4446FF2263E73843400235
S1132EF0400AFF225EE70124A31A1B2B05DD0C40C8
S1132F000022002056E75E46CBE72A002020DA4064
S1132F10C31A9D402B005D1EAB4113435A0704D0D6
S1132F200F221A40042A00D004335A0104D5012484
S1132F3001220C4000203DE701249B01580A0C406B
S1132F40002237E780200124C00328434002400ABE
S1132F500C40FF222EE7C046B4470000FFFFFFF7F6
S1132F60F0B54F46D64646464400C0B5C20F4702A8
S1132F704802400A844666467B0A4800C90F9A46BE
S1132F80240E1500DB00000E8946F600FF2800D150
S1132F908FE001214F464F403900914266D0221AFA
S1132FA0002A00DC9DE000283DD1002E00D18BE0FA
S1132FB0511E002900D0B5E001249B1B5A0144D5C1
S1132FC09B019F09380000F01DFA053887408442B0
S1132FD000DD96E0041B3A0020200134E240041B8B
S1132FE0A7403B005F1EBB41002413435A0704D093
S1132FF00F221A40042A00D004335A0127D5013481
S1133000FF2C00D179E001229B015B0AE4B22A4043
S11330105B02E405580AD207204310431CBC9046C7
S11330209946A246F0BDFF2CE0D08021C9040E438E
S11330301B2A7BDC31002020D140821A9640721E6C
S113304096410E439B1B5A01BAD45A07D0D1012290
S1133050DF082A40FF2C33D1002F00D1A8E08023C1
S1133060DB033B435B025B0AFF24D1E7211A0029FF
S11330704CDD00282AD0FF2CB8D08020C0040643A1
S11330801B2900DDAFE030002027C840791A8E40AC
S1133090711E8E4106439B195901D6D50134FF2C6C
S11330A000D185E001227A491A405B080B401343A2
S11330B09CE7002E00D070E76BE73B1EC5D10022D1
S11330C07B025B0AE4B2A3E714008FE7002E4DD025
S11330D0481E002857D19B1901245A01B5D5022452
S11330E0E0E7002A25D1621CD2B2012A72DD9F1BBF
S11330F07A0135D5F71A0D0064E7012200232A402E
S113310086E73B00634A241A13406FE700296CD119
S1133110611CC8B201284EDDFF2949D09B195B0808
S11331200C0063E7FF2A41D00A0081E701269B1BBC
S113313089E7002C1CD0FF2821D08024E4045242CB
S113314023431B2A00DD96E01C002025D440AA1A44
S113315093405A1E93412343F31A04000D002DE7B4
S1133160002F00D02EE700220024A9E70C003DE741
S1133170002B58D0D243002AEED0FF28E1D13300EF
S1133180FF240D0032E7FF2910D0010078E7002B5F
S11331906ED0FF24002E00D128E780225146D203AE
S11331A0114203D06146114200D13300FF241DE7D0
S11331B0FF2400232CE7002CE9D1002B63D0002E40
S11331C000D113E79B195A0100D43EE7314A0C00A1
S11331D013400BE7002C1ED1002B2FD1002E4FD013
S11331E033000D0002E7012655E7002C1FD1002B08
S11331F043D0C94300290BD0FF2839D01B2944DC14
S11332001C002027CC40791A8B40591E8B41234344
S11332109B19040040E7002B1AD1002E24D18027EB
S11332200022FF031BE7330004000D00DEE6FF2845
S11332301ED08024E40449422343DFE7002E00D15A
S1133240D4E69F1B7A0100D437E7F31A0D00CDE6CC
S1133250FF24002E00D1C9E680225046D20310423A
S1133260A4D060461042A1D133000D00FF24BDE676
S11332703300FF24BAE601236EE733000400B5E609
S1133280002700221CE73300B0E60123C0E7C04654
S1133290FFFFFF7DFFFFFFFB41024300C20F490A0E
S11332A01B0E00207E2B0DDD9D2B0CDC80200004EA
S11332B00143952B0ADC9620C31AD9404842002AC0
S11332C000D108007047034BD018FBE7963B9940A8
S11332D0F4E7C046FFFFFF7F70B5002830D0C31766
S11332E0C4185C40C50F200000F08CF89E231B1A04
S11332F0962B0DDC9622D21A94402A006402640AAA
S1133300DBB26402DB05600AD2071843104370BDC8
S1133310992B19DC9922D21A002A29DD9440220023
S1133320144C1440510704D00F210A40042A00D041
S11333300434620113D4A401640ADBB22A00E0E776
S1133340002200230024DCE705222100121AD140C8
S1133350B922D21A9440621E94410C43DAE7054B19
S11333602A001C409F23A4011B1A640ADBB2C8E78D
S11333702200D5E7FFFFFFFB10B5041E27D000F0A5
S113338041F89E231B1A962B0ADC9622D21A9440EB
S11333906402640ADBB26402DB05600A184310BDF0
S11333A0992B17DC9922D21A002A27DD9440220097
S11333B0134C1440510704D00F210A40042A00D0B2
S11333C00434620112D4A401640ADBB2E3E70023EB
S11333D00024E0E7B9222100D21A91400A00511ECC
S11333E08A410521091ACC401443DBE7044B1C40F5
S11333F09F23A4011B1A640ADBB2CCE72200D7E79F
S1133400FFFFFFFB1C2101231B04984201D3000C86
S113341010391B0A984201D3000A08391B09984243
S113342001D30009043902A2105C40187047C04659
S11334300403020201010101000000000000000079
S113344070B500260C4D0D4C641BA410A64209D186
S1133450002601F01BFA0A4D0A4C641BA410A64274
S113346005D170BDB300EB5898470136EEE7B300C1
S1133470EB5898470136F2E7984800009848000056
S1133480984800009C48000003008218934200D131
S1133490704719700133F9E70FB40B4B13B51C686F
S11334A0002C05D0A369002B02D1200000F0F2FA11
S11334B005AB049AA1682000019300F0C1FC16BC7E
S11334C008BC04B01847C0460400002070B50500CD
S11334D00E00002804D08369002B01D100F0DAFA31
S11334E0AB69AC68002B02D1280000F0D3FA244B5E
S11334F09C420FD16C68A3891B0702D52369002B5A
S113350020D12100280000F057F900281AD001200A
S1133510404270BD1B4B9C4201D1AC68EBE71A4B97
S11335209C42E8D1EC68E6E7013B0136A360002B3E
S113353004DAA269934216DB0A2914D023685A1CC0
S1133540226019703178A3680029EDD1013BA36092
S1133550002B0FDA22000A31280000F0D7F8431CB0
S1133560D5D00A20D5E72200280000F0CFF8431C6C
S1133570E8D1CCE70A2023685A1C22601870C8E7F7
S11335801848000038480000F847000010B5034B05
S113359001001868FFF79AFF10BDC0460400002020
S11335A04A424A41802310B55200DB0000F002F881
S11335B010BD0000F0B51D004F4B85B01E6804001F
S11335C00F000092002E05D0B369002B02D1300009
S11335D000F060FA494B9C4250D17468009B022B66
S11335E005D0012B00D984E0002D00DA81E0210010
S11335F0300000F0E1F9616B002908D02300443366
S1133600994202D0300000F04BFB00236363002397
S1133610A3616360A3891B0603D52169300000F010
S11336203FFBA389364A1340A381009B022B5AD047
S113363003AB02AA2100300000F0C2FAA3891843A8
S1133640A081002D24D1029D280000F01FFB0195CC
S1133650071E42D1029B0193AB4239D10120404263
S11336600223A2891343A3810023A36023004733C9
S1133670236023610123636105B0F0BD214B9C42AB
S113368001D1B468AAE7204B9C42A7D1F468A5E70E
S1133690002FD9D0B369002B02D1300000F0FAF921
S11336A0009B012B03D1A389009A1A43A28108200D
S11336B0A389276027616561184018D0012018404C
S11336C00023984211D06D42A360A5611800D3E78E
S11336D0019800F0DBFA071EC0D08023A289019D67
S11336E01343A381D6E70020BAE7A560C4E7A0602E
S11336F0C2E701204042BFE7040000201848000050
S11337005CF3FFFF38480000F8470000F8B50500F7
S11337100E001400002804D08369002B01D100F0AE
S1133720B9F9224B9C422DD16C68A369A360A3898B
S11337301B0731D52369002B2ED023682269F7B2E9
S1133740981A6369F6B2984205DB2100280000F05C
S113375033F9002826D1A3680130013BA360236814
S11337605A1C22601F706369984204D0A389DB0746
S11337701AD50A2E18D12100280000F01DF90028BE
S113378012D00FE00A4B9C4201D1AC68CDE7094B43
S11337909C42CAD1EC68C8E72100280000F00CF86C
S11337A00028CAD0012676423000F8BD184800002F
S11337B038480000F8470000364B70B51D68060015
S11337C00C00002D05D0AB69002B02D1280000F0BD
S11337D061F9314B9C420FD16C680C23E25E93B2C9
S11337E019072DD4D90611D40923012033603733A6
S11337F01343A381404270BD284B9C4201D1AC6865
S1133800EBE7274B9C42E8D1EC68E6E75B0713D56E
S1133810616B002908D023004433994202D0300060
S113382000F03EFA002363632422A3899343A38117
S113383000236360236923600823A2891343A381BF
S11338402369002B0BD1A0218022A3898900920037
S11338500B40934203D02100300000F0D9F901233A
S1133860A289134011D00023A36063695B42A36162
S1133870002023698342BED10C23E25E1306BAD52D
S113388040231343A3810138B5E7920700D4636949
S1133890A360EDE704000020184800003848000049
S11338A0F8470000F7B58A8905000C00130760D4B7
S11338B04B68002B04DC0B6C002B01DC0020FEBDEC
S11338C0E76A002FFAD000232E682B6080235B0167
S11338D01A4034D0606DA3895B0706D56368C01AAB
S11338E0636B002B01D0236CC01A0200216A0023F1
S11338F02800E76AB847A189431C06D12B681D2B11
S113390031D82C4ADA40D3072DD5002363602369CC
S11339102360CB0405D5431C02D12B68002B00D1B6
S11339206065616B2E600029C8D02300443399423E
S113393002D0280000F0B4F900206063BFE701233F
S1133940216A2800B847431CC5D12B68002BC2D07C
S11339501D2B01D0162B01D12E60AFE74023A28985
S11339601343A381ABE740230B430120A3814042CF
S1133970A5E70F69002FA1D00B680F60DB1B019333
S11339800023920700D14B69A360019B002B00DC4C
S113399094E7019B3A00216A2800A66AB0470028F0
S11339A003DC4023A2891343DFE7019B3F181B1A62
S11339B00193EAE7010040200B6970B505000C0093
S11339C0002B01D1002070BD002804D08369002B96
S11339D001D100F05FF80B4B9C4209D16C680C22BA
S11339E0A35E002BEED021002800FFF75BFFEAE77F
S11339F0054B9C4201D1AC68F1E7044B9C42EED1EB
S1133A00EC68ECE71848000038480000F84700006C
S1133A1010B5024900F0B2F810BDC046B939000033
S1133A20002310B504000360436083608181436612
S1133A30C281036143618361190008225C30FFF78E
S1133A4023FD054B24626362044BA362044BE362CF
S1133A50044B236310BDC046AD430000D5430000B2
S1133A600D4400003944000070B568254A1E5543D2
S1133A700E002900743100F05DF9041E08D0002105
S1133A802A00016046600C30A0606832FFF7FCFC3D
S1133A90200070BD836913B50400002B28D1836412
S1133AA0C3640365134B144A1B68826201939842F2
S1133AB001D101238361200000F020F86060200020
S1133AC000F01CF8A060200000F018F80022E0606C
S1133AD004216068FFF7A4FF01220921A068FFF711
S1133AE09FFF02221221E068FFF79AFF0123A361DE
S1133AF013BDC046F4470000113A0000F8B51E4B50
S1133B0007001E68B369002B02D13000FFF7C2FF23
S1133B104836B4687368013B04D53368002B07D07A
S1133B203668F6E70C22A55E002D0DD06834F2E766
S1133B3004213800FFF798FF30600028F0D10C23EF
S1133B4004003B602000F8BD012320005B42E381B8
S1133B500233A38165662560A560656025616561A2
S1133B60A561082229005C30FFF78EFC6563A5631C
S1133B70A564E564E6E7C046F4470000F7B5040031
S1133B800700002601914834002C01D13000FEBD0D
S1133B906368A5680093009B013B009301D52468EA
S1133BA0F2E7AB89012B08D90E22AB5E013304D0B6
S1133BB029003800019B984706436835EBE700006D
S1133BC070B50E001D000E23C95E90B014000029CC
S1133BD007DA00232B60B3891B0611D48023DB0092
S1133BE00FE001AA00F054FC0028F2DBF022029B53
S1133BF012021340054A9B185A4253412B60EDE7C9
S1133C0040230020236010B070BDC04600E0FFFFD9
S1133C10F7B502268B8905000C00334206D0230039
S1133C2047332360236101236361F7BD01AB6A4617
S1133C30FFF7C6FF00990700280000F07BF8002872
S1133C4006D10C22A35E9A05EFD41E43A681E6E7B3
S1133C500D4BAB628023A28920601343A381009B98
S1133C6020616361019B002B0AD00E23E15E2800D2
S1133C7000F020FC002803D00123A2891343A38170
S1133C80A0893843A081D0E7113A000010B5034B56
S1133C900100186800F04EF810BDC0460400002072
S1133CA070B50500002910D00C1F2368002B00DA22
S1133CB0E418280000F02FFC1D4A1368002B05D1DE
S1133CC063601460280000F027FC70BDA34209D98A
S1133CD0216860188342F3D118685B684118216039
S1133CE0EEE713005A68002A01D0A242F9D91968F4
S1133CF05818A0420BD1206809185818196082423C
S1133D00E0D110685268411819605A60DAE7A0429D
S1133D1002D90C232B60D5E721686018824203D1B5
S1133D20106852684118216062605C60CAE7C0464E
S1133D30D0000020032370B5CD1C9D430835060038
S1133D400C2D1ED20C25A9421DD8300000F0E3FB37
S1133D50254A14682100002919D1244C2368002B1A
S1133D6003D1300000F010FB20602900300000F087
S1133D700BFB431C2CD10C233000336000F0CCFB34
S1133D8003E0002DDFDA0C233360002070BD0B68E4
S1133D905B1B1AD40B2B03D90B60CC18256003E0F2
S1133DA08C420ED163681360300000F0B5FB200034
S1133DB007220B30231D9043C31AE7D05A42E25026
S1133DC0E4E74B6863600C00EEE70C004968C2E767
S1133DD00323C41C9C43A042E0D0211A300000F00D
S1133DE0D3FA431CDAD1C6E7D0000020D400002067
S1133DF0936810B5013B9360002B05DA9469A342E4
S1133E0008DBCBB20A2B05D01368581C106019705C
S1133E10C8B210BDFFF77AFCFBE7F8B506000F0047
S1133E201400D518AC4201D1002007E021783A00F3
S1133E303000FFF7DDFF0134431CF3D1F8BD00006F
S1133E40F0B59FB006000F0014000593002804D0BD
S1133E508369002B01D1FFF71DFE7F4B9F425CD18C
S1133E607768BB891B0762D53B69002B5FD00023B1
S1133E7006AD6B6120336B761033AB760294029CF3
S1133E802378002B5DD1029BE31A04930DD0049B8D
S1133E90029A39003000FFF7C0FF431C00D1CCE088
S1133EA06A69049B944663446B612378002B00D1B8
S1133EB0C3E00122002352426A6002A9543252181C
S1133EC001342B60EB60AB601370AB652178052285
S1133ED0624800F015FB631C9C46002835D1296814
S1133EE0CB0604D5532302AA20309B1818700B0765
S1133EF004D553232B2002AA9B18187023782A2B4D
S1133F002CD000200A21099B2278303A092A00D8B3
S1133F106BE000282AD0099328E0514B9F4201D13D
S1133F20B7689EE74F4B9F429BD1F76899E73900EA
S1133F303000FFF741FC002899D0012040421FB017
S1133F40F0BD252B9FD001349AE7444B2968C01A51
S1133F50012383400B432B606446B7E7059B181D80
S1133F601B680590002B3ADB0993644623782E2BBB
S1133F700BD16378621C2A2B3FD1059B02341A1D96
S1133F801B680592002B35DB079321780322364802
S1133F9000F0B6FA002807D0334B2A68C01A402331
S1133FA0834013432B6001342178631C06222F487D
S1133FB00293297600F0A4FA002844D02C4B002B5D
S1133FC02FD12968059B0722C90528D59B1893433F
S1133FD0083305936B69039A9B186B614FE75B4247
S1133FE0EB6002230B432B60BFE74B4301349B1868
S1133FF0012089E701235B42C6E7002314000A205D
S11340001A006B6021783039092903D9002BBCD000
S11340100792BAE74243013452180123F2E7073307
S1134020D5E705AB00933A00124B2900300000E0BD
S113403000BF0390039B0133CCD1BB895B0600D541
S11340407BE70B987BE705AB00933A00094B29000B
S1134050300000F07FF8ECE71848000058480000F2
S113406038480000F84700005E480000624800003D
S1134070000000001B3E0000F7B5150001938A689C
S11340800B6900900C00934200DA130022002B60AD
S113409043321278002A01D001332B6023689B0637
S11340A002D52B6802332B60062723681F4027D0D4
S11340B0230043331B785A1E93412268920630D45E
S11340C02200019943320098089EB047431C25D032
S11340D0062320682A68E16803400025042B03D1E5
S11340E08D1AEB43DB171D40A3682269934201DD5F
S11340F09B1AED180027BD4220D1002010E00137A3
S1134100E3682A689B1A9F42D2DA220001231932FB
S113411001990098089EB047431CF0D10120404209
S1134120FEBD3020E1184331087021005A1C45318E
S11341300978A218433202331170C1E72200012327
S11341401A3201990098089EB047431CE6D0013703
S1134150D1E70000F0B58BB006920A004332079312
S1134160059004920A7E0C00109B6E2A00D18FE009
S113417017D8632A2CD008D8002A00D199E0582AED
S113418054D026004236327029E0642A01D0692ACC
S1134190F7D121681A68080623D5111D196015681E
S11341A025E0732A00D188E008D86F2A29D0702A24
S11341B0E7D1202209680A43226003E0752A20D04F
S11341C0782ADED122007821453211706C4A30E021
S11341D00E001A684236111D1960136833700123EA
S11341E079E04906D9D5111D19600023D55E002D4B
S11341F003DA2D23049A6D421370624B0A2703934A
S11342002FE020681968050603D5081D18600D689D
S113421005E04006F9D50D68081D1860ADB2594B8C
S1134220082703936F2A18D00A2716E045310A702D
S1134230544A03921A682168101D1860156808060C
S113424022D5CB0702D52023194321601027002D46
S113425003D1202322689A4322602300002243339F
S11342601A706368A360002B5CDB0422216891430D
S11342702160002D58D1049E002B64D02600039B9E
S113428042361B7833705EE04806DAD5ADB2D8E723
S113429009681A68080605D5111D19601368626952
S11342A01A6006E04906F7D5111D19601368A28A41
S11342B01A800023049E236154E01A68111D1960BA
S11342C0166800216268300000F01AF9002801D055
S11342D0801B6060636823610023049A137041E0CB
S11342E02369320006990598079DA847431C43D0CB
S11342F0236800259B070FD4099BE06898423DDAA8
S113430018003BE022000123193206990598079E04
S1134310B047431C30D00135E368099A9B1A9D428B
S1134320F0DBE9E7002DA9D0049E28003900FEF750
S1134330F3F8039B013E5B5C280033703900FEF701
S113434065F8051EF1D1082F09D12368DB0706D5CE
S113435063682269934202DC3023013E3370049B7C
S11343609B1B2361079B09AA00932100069B0598C8
S1134370FFF782FE431CB3D1012040420BB0F0BDD5
S11343807A48000069480000002370B5064C050017
S113439008002360FDF7BCFF431C03D12368002BF6
S11343A000D02B6070BDC0467002002070B50C00B8
S11343B00E25495F00F0B2F8002803DB636D1B187B
S11343C0636570BDA389024A1340A381F9E7C0461F
S11343D0FFEFFFFFF8B51F008B8905000C001600E6
S11343E0DB0505D50E23C95E0022022300F074F814
S11343F0A389054A28001340A38132000E23E15EFD
S11344003B0000F01FF8F8BDFFEFFFFF70B50C0094
S11344100E25495F00F060F8A389421C03D1054AC8
S11344201340A38170BD802252011343A3816065B0
S1134430F8E7C046FFEFFFFF10B50E23C95E00F09A
S113444015F810BD70B50500080011000022064CD7
S113445022601A00FCF78EFD431C03D12368002B55
S113446000D02B6070BDC04670020020002370B5E0
S1134470064C050008002360FDF75CFF431C03D1D4
S11344802368002B00D02B6070BDC0467002002052
S1134490002370B5064C0500080011002360FDF7E9
S11344A04CFF431C03D12368002B00D02B6070BD4C
S11344B070020020002370B5064C0500080023603C
S11344C0FDF740FF431C03D12368002B00D02B6071
S11344D070BDC0467002002070B5050008001100D0
S11344E00022064C22601A00FDF72EFF431C03D164
S11344F02368002B00D02B6070BDC04670020020E2
S1134500C9B28218904201D10020704703788B42CF
S1134510FBD00130F6E770477047000070B5050026
S1134520080011000022064C22601A00FCF700FD6E
S1134530431C03D12368002B00D02B6070BDC04600
S113454070020020D4030000D4030000B003000074
S1134550D4030000B003000096030000960300009B
S1134560D4030000D4030000D4030000D4030000EB
S1134570D4030000D4030000D4030000D4030000DB
S1134580D4030000D4030000D4030000D4030000CB
S1134590D4030000D4030000D4030000D4030000BB
S11345A0D4030000D4030000D4030000D4030000AB
S11345B0D4030000D4030000D4030000D40300009B
S11345C0D4030000D4030000D4030000D40300008B
S11345D0D4030000D4030000D4030000D40300007B
S11345E0D4030000D4030000D4030000D40300006B
S11345F0D4030000D4030000D4030000D40300005B
S1134600D4030000D4030000D4030000D40300004A
S1134610D4030000D4030000D4030000D40300003A
S1134620D4030000D4030000D4030000D40300002A
S1134630D4030000D4030000D4030000D40300001A
S1134640D4030000B0030000B0030000B80300006E
S1134650B8030000B8030000B803000000080042DB
S1134660000C0042001000420014004200180042F6
S1134670001C0042000100000002000000040000D1
S1134680040202001A1A1B00FFFFFF00FFFFFF00D5
S1134690FFFF000008040200010000000200000007
S11346A004000000080000000010000000200000CA
S11346B00040000000800000000001000000020033
S11346C000000400000008000F10110050696E6F14
S11346D020616C746F0D000025642C25642C256406
S11346E02C25642C25640D0A000000009E1C00008B
S11346F09A1C00009A1C0000FC1C0000FC1C00001A
S1134700B21C0000A41C0000B81C0000EA1C00003D
S1134710841D0000641D0000641D0000F01D0000E5
S1134720761D0000921D0000681D0000A01D000001
S1134730E01D0000CC2A00009C2A0000AE2A0000E4
S1134740F0290000AE2A0000922A0000AE2A0000E0
S1134750F02900009C2A00009C2A0000922A0000F4
S1134760F0290000F8290000F8290000F8290000C9
S1134770B42A00009C2A00009C2A0000702A000031
S1134780542B0000702A0000922A0000702A0000B6
S1134790542B00009C2A00009C2A0000922A00004E
S11347A0542B0000F8290000F8290000F829000023
S11347B05E2B00004C2E00009C2D00009C2D000060
S11347C09A2D00003E2E00003E2E0000342E0000E4
S11347D09A2D00003E2E0000342E00003E2E0000D4
S11347E09A2D0000442E0000442E0000442E0000A8
S11347F0D42E00000800002000000000000000008B
S113480000000000000000000000000000000000A4
S11348100000000000000000000000000000000094
S11348200000000000000000000000000000000084
S11348300000000000000000000000000000000074
S11348400000000000000000000000000000000064
S11348500000000000000000232D302B2000686CB5
S11348604C0065666745464700303132333435368F
S113487037383941424344454600303132333435C8
S1134880363738396162636465660000F8B5C0463E
S1134890F8BC08BC9E467047DD000000F8B5C04671
S10F48A0F8BC08BC9E467047B500000040
S11348AC010000000800002000000000184800006F
S11348BC38480000F8470000000000000000000029
S11348CC00000000000000000000000000000000D8
S11348DC00000000000000000000000000000000C8
S11348EC00000000000000000000000000000000B8
S11348FC00000000000000000000000000000000A8
S10B490C00000000000000009F
S903222DAD
