:100000006821002039110000351100003511000071
:1000100000000000000000000000000000000000E0
:10002000000000000000000000000000351100008A
:100030000000000000000000351100003511000034
:100040003511000035110000351100003511000098
:100050003511000035110000351100003511000088
:1000600035110000C5050000D5050000E5050000BC
:10007000F50500000506000015060000351100001A
:100080003511000035110000351100003511000058
:1000900035110000000000000000000035110000D4
:1000A00035110000000000003511000000000000C4
:1000B0000000000010B5064C2378002B07D1054B3B
:1000C000002B02D0044800E000BF0123237010BDC4
:1000D0006800002000000000E4210000084B10B57B
:1000E000002B03D00749084800E000BF0748036819
:1000F000002B00D110BD064B002BFBD09847F9E731
:10010000000000006C000020E4210000E421000059
:10011000000000000C4B1B68002B06D1EFF310838E
:10012000002B07D00022094B1A70074A13680133CD
:100130001360704772B6BFF35F8F0022044B1A70D2
:100140000132024B1A70F0E7840000208800002082
:1001500000000020084B1A68013A1A601B68002B47
:1001600009D1064B1B78002B05D00122044B1A70D5
:10017000BFF35F8F62B670478400002088000020C4
:1001800000000020F0B583B001AC012565700027A8
:10019000A770257021001320064EB047802212035D
:1001A000054B9A612770657021001C20B04703B091
:1001B000F0BDC046BD0100000044004100B583B061
:1001C00001AB80221A700A785A704A789A708A783D
:1001D000DA701900014B984703B000BDD51000003C
:1001E000F0B5DE4657464E464546E0B587B08046F8
:1001F000049116001F000022002300218B463F249B
:1002000001202100009601975C4603944446059422
:1002100013E02024641A0500E540A84614E0009C81
:10022000019D121BAB415C464D462C43A346039CEB
:1002300045462C430394013925D3202464420C19EC
:10024000E7D40500A540A84604008C40A1469218BA
:100250005B4114001D00059E4F463E40B446049E7F
:1002600047463E40B246664657463E4303D00600E8
:10027000264332002B00009C019D9D42DBD8CED14D
:100280009442D8D8CBE7039B5846190007B03CBC32
:1002900090469946A246AB46F0BD10B549084023AA
:1002A0000024814202D2180010BD1C00091A631CF0
:1002B0009BB28842F9D94023FF2CF4D81480002344
:1002C000F1E70000F0B583B00F00160008AA11781E
:1002D00004004C434022BC4202D9100003B0F0BDE0
:1002E000002B14D1020008000021194CA047010086
:1002F0003A0000230020174CA04700220123121AC5
:100300008B41120C1B041A4332800022E5E70022C5
:10031000012BF9D10A00002300210D4CA047020057
:100320000B0000920193380000210A4CA047050001
:1003300080239B0140229842CFD8790FF800009A81
:10034000019BA047EA00821AD2B252032A43DBE79C
:1003500075150000E101000010B582B004000E4BDD
:100360001B78002B07D0002905D10B4B5B7883420B
:1003700010D01D200CE001A90C701320074B9847EA
:100380001320074B9847044B5C7001221A70002021
:1003900002B010BD0020FBE78C000020DD0F000044
:1003A000510F0000404B984231D00AD93F4B984240
:1003B0004DD03F4B98425AD03E4B984237D0002008
:1003C00070473D4B98420CD03C4B9842F7D10129E5
:1003D00017D000295DD0022915D0032915D000209F
:1003E000EEE7012907D0002951D0022905D00329C1
:1003F00005D00020E4E73248E2E73248E0E732483F
:10040000DEE73248DCE73248DAE73248D8E701294C
:1004100007D000293FD0022905D0032905D00020AC
:10042000CEE72D48CCE72D48CAE72D48C8E701297B
:1004300007D0002931D0022905D0032905D000209A
:10044000BEE72848BCE72848BAE72848B8E70129AA
:1004500007D0002923D0022905D0032905D0002088
:10046000AEE72348ACE72348AAE72348A8E70129D9
:1004700007D0002915D0022905D0032905D0002076
:100480009EE71E489CE71E489AE71E4898E71E48CC
:1004900096E7032094E71D4892E71D4890E71D4822
:1004A0008EE71D488CE7C04600100042001800424D
:1004B000001C00420014004200080042000C0042F0
:1004C000030005000300060003000700030001000D
:1004D00003001E0003001F0002000D0002000E00BA
:1004E00002000F00030011000300120003001300BC
:1004F00005003F0005003E00050052000300170004
:1005000003001800030019000300040002000C009F
:1005100003001000050053000300160030B587B03B
:100520000B4B6A4632CB32C232CB32C2009B834283
:100530000BD001239A0069465258824206D00133FB
:10054000062BF7D1002007B030BD0023D8B2FAE760
:10055000E820000070470000F0B50A4B1B78002B24
:100560000CD1094F094E0A4D0024DE515A1914606E
:100570000433182BF9D10122024B1A708000024B70
:10058000C150F0BD8E0000209000002055050000F5
:10059000CC00002000B583B009236A4613700133F4
:1005A0005370013393700133D370013313710133EE
:1005B0005371034B98476B46185603B000BDC046B5
:1005C0001D05000010B5024B1B680020984710BDA8
:1005D0009000002010B5024B5B680120984710BDC9
:1005E0009000002010B5024B9B680220984710BD78
:1005F0009000002010B5024BDB680320984710BD27
:100600009000002010B5024B1B690420984710BDD4
:100610009000002010B5024B5B690520984710BD83
:1006200090000020F0B5DE4657464E464546E0B500
:1006300091B005000C00160029600800BC4B9847DB
:10064000020023680520DB0706D511B03CBC9046AC
:100650009946A246AB46F0BD236817309B07F4D4F9
:10066000B449086A971C0123BB4003430B620FA9DE
:100670002D27F35D0B701432D3B202931800AE4BEA
:1006800098470298AD4B9847F05D0021AC4B9847D6
:10069000F37A6B712423F35CAB712523F35CEB716C
:1006A000F37E2B72337F6B722B6898461800A04B39
:1006B0009847143000220E2306A98C4663441A8002
:1006C000328A02928023DB019A4200D19EE00FD948
:1006D000C023DB01029A9A4200D192E080231B02E0
:1006E0009A4200D01FE1032306930023079308E0FA
:1006F00080239B019A4200D015E1102306930F3B03
:10070000079333680593F368039373690493337E07
:100710009B462623F35C9A4673689946002B00D1CA
:10072000A0E080235B05994500D184E0737E002B17
:1007300002D0B37E424693732A68029FD369002B8E
:10074000FCD10E3306AA944663441B88424693812B
:10075000059B039A1343049A13434A4613431F43CA
:100760005B461B021F4353465B071F432723F35C73
:10077000002B01D104331F43737E9B02327F520250
:100780001343727F120213432422B25C52041343B8
:100790002522B25C12041343B17AF27A1143194351
:1007A0003389FF2B00D181E0802252041743194383
:1007B0002C23F35C002B03D1624B9B789B0701D564
:1007C00080231F432A68D369002BFCD1434659601C
:1007D0002A68D369002BFCD143461F600EAB8022F0
:1007E0001A7000225A70DA709A70336B0A93736B26
:1007F0000B93B36B0C93F36B02930D9300270AAE2C
:1008000063E008230693073B07937AE73368059371
:10081000F368039373690493337E9B462623F35C4A
:100820009A4673689946002B18D080235B0599453A
:1008300001D0002025E02723F35C002B00D075E7D2
:10084000336A1F00C0B2404B984701000E2206AB2E
:100850009C46624438003D4B984712E008230693BB
:10086000002307932723F35C002B0ED0069B0093F5
:10087000079B0E2206A98C466244B16A306A344F47
:10088000B847002800D0E0E650E7336A1F00C0B246
:100890002D4B98470100069B0093079B0E2206A84C
:1008A0008446624438002A4FB847EAE7F37E002BBB
:1008B00000D17DE78023DB041F4379E72000254B2F
:1008C000984707E00137042F0DD0F9B2BB009859C3
:1008D0000028F3D0431CF5D00EA90870000CC0B25C
:1008E0001D4B9847EEE70023EB602B616B61AB611A
:1008F000EB612B62AB626B620022EB85AB85303320
:10090000EA540133EA540133EA540133EA542868C3
:10091000074B984704001149114B9847A400114B0D
:10092000E550002091E61023069300230793E8E6A4
:100930001D05000000040040DD0F0000510F000005
:100940005903000000200041F90F00009B02000045
:10095000C5020000A5030000D5100000050A000034
:1009600059050000CC000020C2791C23002A01D1C7
:1009700018007047C28D92B2173B002AF8D1036865
:10098000DA69002AFCD1198502211A7E0A42FCD0BC
:100990000023EDE782791C23002A01D1180070475B
:1009A000828D92B2173B002AF8D10268107E400770
:1009B000F4D5D369002BFCD1538BDBB298061DD044
:1009C000980703D5022353831833E7E7580703D565
:1009D000042353831A33E1E7D80703D50123538354
:1009E0001233DBE7D80603D5102353833233D5E720
:1009F0009B0603D5202353832133CFE7138D0B8030
:100A00000023CBE7F8B58000624BC5582C68E3693A
:100A1000002BFCD1237EA67D1E403023EB5C3122CF
:100A2000AF5C1F40F30722D5EB8D9BB2002B1CD08F
:100A3000AA6A1378DBB2511CA962697901290ED028
:100A40009BB2DB05DB0D2385EB8D013B9BB2EB8578
:100A5000002B0CD1013323750133A37507E05178C6
:100A600009020B430232AA62EBE701232375B307A5
:100A700006D50223237500223133EA54FB071AD42A
:100A8000730765D5AB8D9BB2002B5FD0638BDBB258
:100A90001A0714D43F221340002B34D09A0711D5E3
:100AA0001A223223EA54303B63837B0750D5280057
:100AB0006B6998474CE02800EB689847E0E73722DD
:100AC0001340E9E75A0705D51E223223EA542E3B8C
:100AD0006383EAE7DA0705D513223223EA54313B70
:100AE0006383E2E7DA0605D542223223EA54223B49
:100AF0006383DAE720221A42D7D021323223EA5424
:100B0000123B6383D1E7238DDB05DB0DDAB2696A23
:100B10000A706A6A511C69626979012910D0AB8D2B
:100B2000013B9BB2AB85002B12D10433237500220D
:100B30002E33EA54BB070BD528002B69984707E0F2
:100B40001B0A53706B6A01336B62E8E70423237559
:100B5000F30604D5102323752376FB060ED4B306C3
:100B600004D52023237523763B070BD4330704D504
:100B7000082323752376BB0608D4F8BD2800EB694B
:100B80009847ECE72800AB699847EFE72B6A280005
:100B90009847F2E7CC00002010B5082803D8800061
:100BA0001B4B1B589F46002030E01A4B18692DE064
:100BB000194B1B6A9B059B0F1848D84026E0154B24
:100BC000586923E0134B1B6800209B071ED5124970
:100BD0001022CB681A42FCD00E4B1B685B0701D475
:100BE0000F4813E000200F4B98470A4B9B681B04EB
:100BF0001B0C58430AE05023074AD35C00205B07D4
:100C000004D5044BD86801E08020000210BDC04626
:100C100000210000A80000200008004000127A0017
:100C2000006CDC02F90F000070B50C490B6A047807
:100C3000857840780122104080014026B343034369
:100C40002A40D20180208343134303222240120210
:100C50000348034013430B6270BDC04600080040C8
:100C6000FFFCFFFF082803D88000254B1B589F4638
:100C7000172044E0234A136A02210B431362002029
:100C80003DE0204A936902210B439361002036E046
:100C90001C4A138A02210B43138200202FE0194AB9
:100CA000938A02210B439382002028E016490B68A7
:100CB000022213430B60134B9A8419000E32CB6847
:100CC0001A42FCD0104A91680E4BD96252689A625F
:100CD00000229A8419001032CB681A42FCD00A4BC9
:100CE0001B689BB2074A9384002008E00549442210
:100CF0008B5C022003438B54002000E000207047EF
:100D00002421000000080040A800002030B585B074
:100D1000C222D2001A4B9A601A4A53681E218B4392
:100D2000536001236A4613700024174DE0B26946F0
:100D3000A8470134252CF9D103A8002444700125CB
:100D400085700470114B98470620114B9847114B42
:100D50009847114B1C725C729C72DC7201956B4659
:100D60005C7006236A461370147254726946002040
:100D70000A4B984700200A4B984705B030BDC04643
:100D80000008004000400041DD0F0000290C000079
:100D9000650C0000A50D000000040040C90D000016
:100DA000810E0000064A936908210B4393610122DA
:100DB000044B1A7019000B781342FCD17047C046DF
:100DC00000040040000C004070B5060004000D78DF
:100DD0002D0205434B78002B02D08023DB021D43FC
:100DE0004B7A002B02D080231B031D434868012847
:100DF00010D9431E184234D1022830D902230022D0
:100E000001325B009842FBD8120232431400802367
:100E10005B031D430B7A002B02D080239B031D43F1
:100E2000134A53785BB2002BFBDB124B9847124BF3
:100E30001E700F4A53785BB2002BFBDB0C4B9C609F
:100E40001A0053785BB2002BFBDB094A5368802100
:100E500049020B401D435560084B984770BD002266
:100E6000D2E70402344380239B021D43D2E7C046ED
:100E7000000C004015010000080C00405501000066
:100E800010B504000B4A53785BB2002BFBDB0A4B16
:100E900098470A4B1C70074A53785BB2002BFBDB68
:100EA000044A516880235B020B435360044B98470C
:100EB00010BDC046000C004015010000040C0040AD
:100EC0005501000070B504001A4A53785BB2002B3C
:100ED000FBDB194B9847194B1C70164A53785BB2D1
:100EE000002BFBDB134E7068C004C00E144B9847F8
:100EF0000500124B1C707668F602F60F114B1C7041
:100F00000C4A53785BB2002BFBDB0A4B9C68240233
:100F1000240C0D4B9847002E07D1012C07D9210036
:100F200028000A4B9847050001E00134E5402800FD
:100F300070BDC046000C004015010000040C0040CC
:100F4000990B0000080C0040550100005D140000E2
:100F500010B50400064B9847064B1C70064A538890
:100F60008021C9010B435380044B984710BDC046F4
:100F700015010000020C0040000C0040550100006B
:100F800010B504000F4B98470F4B1C700F4A538845
:100F90001B05180F53880E490B40538053880D4989
:100FA0000B40538011008022D2014B881342FCD1A8
:100FB00006494A8803020648024013434B80064B09
:100FC000984710BD15010000020C0040000C0040C5
:100FD000FFF0FFFFFFBFFFFF5501000010B50C78C9
:100FE00024020443024B9847A4B2024B5C8010BD1C
:100FF000810F0000000C004010B50400064B98471C
:10100000064B1C70064B5C882405240F054B984743
:101010002000054B984710BD15010000020C004050
:10102000000C004055010000C50E000030B5D3781B
:10103000002B35D11378802B29D01B068024640225
:10104000234354780225AC4306D19478002C20D158
:101050008024A402234341605478013C012C1CD914
:101060000D042D0CA024E4052C431C4384620D0CBC
:10107000D02424062C431C438462D478002C22D133
:101080005B031CD59378012B1ED0416117E0002330
:10109000D7E7C024E4022343DDE70D4C2340DFE71C
:1010A00041600C04240CA023DB05234383620C0C59
:1010B000D0231B0623438362D378002B03D15378BC
:1010C000013B012B02D930BD8161F8E78160FAE76D
:1010D000FFFFFBFF10B50A00C1090023002904D15E
:1010E0004309DB0105498C4663441F24204001214C
:1010F00081401800024B984710BDC0460044004193
:101100002D1000007047000010B5054B9847054BA7
:101110009847054B9847054B9847054B984710BD96
:101120000D0D0000850100000511000005110000F3
:1011300005110000FEE70000F8B52A4A2A4B9A4242
:1011400011D01A00294B9A420DD2294A03339B1A17
:101150009B0801339B000022234822498C5884506D
:1011600004329A42FAD1234A234B9A420AD2D343F9
:1011700021495B1803218B4304339B18002102C2D1
:101180009342FCD11D4AFF211D4B8B439360FD39D7
:1011900090235B001B4AD1501B4AD3780325AB43F5
:1011A00002242343D370D3780C27BB430826334350
:1011B000D370164B987B30229043202210439873B3
:1011C000997BB943314399739A7BAA4322439A731B
:1011D0000F4A536880210B4353600E4B98470E4BC8
:1011E0009847FEE7E421000000000020680000208E
:1011F00004000020680000206801002000ED00E0ED
:101200000000000000700041005000410048004113
:1012100000400041C915000031130000F0B5C6467A
:1012200000B50C00904600280FD1002A11DD8F1860
:10123000094E0A4D306821002B6898470134BC42A2
:10124000F8D1404604BC9046F0BD01235B4298466D
:10125000F7E78046F5E7C046EC000020E4000020F8
:10126000F0B5C64600B50E0015000138022810D8AA
:10127000002A11D000240C4B98460C4F43461868A6
:10128000315D3B689847002808DB0134A542F5D161
:1012900006E00124644203E0140001E001246442FA
:1012A000200004BC9046F0BDEC000020E8000020C7
:1012B0000300064A1268002A04D0044A1068C318C2
:1012C000136070470249014A1160F6E7C000002030
:1012D0006821002001204042704780239B014B6021
:1012E00000207047012070470020704770B582B021
:1012F00005000E0000226B46DA80064C6B46991DF5
:101300002800A0470028F9D16B4606331B883370AC
:1013100002B070BD9509000070B505008CB2034E97
:1013200021002800B0470028FAD170BD69090000EB
:10133000F8B5364B9847364A8023DB051360002307
:101340005360FF21118100219372D3729620800196
:101350001062012424201454013014540130135419
:101360000130135493620530135401301354536108
:101370001382D376117611775176132393765177B2
:1013800080235B03D360234B1363234B53630123FD
:101390005B429363D363214D214B1D602149224B56
:1013A00019602249224B196022492800224B984794
:1013B000224F3B6898680021214EB0473B6858682F
:1013C0000021B0472E6830001E4B98471F2318405D
:1013D00084401D4B1C602B68DA69002AFCD13368FD
:1013E0000232134333601948194B9847194C1A4D70
:1013F000174E04E080231B0363612800B047236A73
:10140000DB00F7D580231B03A361F8E70911000077
:10141000240100200300040003000500F000002068
:10142000EC00002019130000E8000020ED1200007D
:10143000E40000200008004225060000040000200F
:10144000F51600009505000000E100E048210000CD
:10145000E11600000044004158210000002243082A
:101460008B4274D303098B425FD3030A8B4244D36C
:10147000030B8B4228D3030C8B420DD3FF220902AE
:1014800012BA030C8B4202D31212090265D0030B6D
:101490008B4219D300E0090AC30B8B4201D3CB0363
:1014A000C01A5241830B8B4201D38B03C01A5241A5
:1014B000430B8B4201D34B03C01A5241030B8B42A7
:1014C00001D30B03C01A5241C30A8B4201D3CB0292
:1014D000C01A5241830A8B4201D38B02C01A524177
:1014E000430A8B4201D34B02C01A5241030A8B427A
:1014F00001D30B02C01A5241CDD2C3098B4201D392
:10150000CB01C01A524183098B4201D38B01C01A0F
:10151000524143098B4201D34B01C01A5241030986
:101520008B4201D30B01C01A5241C3088B4201D335
:10153000CB00C01A524183088B4201D38B00C01AE2
:10154000524143088B4201D34B00C01A5241411A09
:1015500000D20146524110467047FFE701B5002016
:1015600000F006F802BDC0460029F7D076E77047C4
:101570007047C046F0B5CE46474615042D0C2E00E8
:1015800080B50704140C3F0C9946030C7E435D4361
:10159000674363437F19340CE4199C46A54203D981
:1015A00080235B029846C4444B4651434343360470
:1015B000360C250C24046544A41959184919200037
:1015C0000CBC90469946F0BD70B500260C4D0D4CF4
:1015D000641BA410A64209D1002600F0F3FD0A4DB9
:1015E0000A4C641BA410A64205D170BDB300EB5891
:1015F00098470136EEE7B300EB5898470136F2E71B
:10160000D0210000D0210000D0210000D421000012
:1016100003008218934200D1704719700133F9E733
:1016200070B505000E00002804D08369002B01D19D
:1016300000F0DAFAAB69AC68002B02D1280000F0A8
:10164000D3FA244B9C420FD16C68A3891B0702D5A7
:101650002369002B20D12100280000F057F9002831
:101660001AD00120404270BD1B4B9C4201D1AC6896
:10167000EBE71A4B9C42E8D1EC68E6E7013B013608
:10168000A360002B04DAA269934216DB0A2914D066
:1016900023685A1C226019703178A3680029EDD1A3
:1016A000013BA360002B0FDA22000A31280000F072
:1016B000D7F8431CD5D00A20D5E72200280000F037
:1016C000CFF8431CE8D1CCE70A2023685A1C2260DB
:1016D0001870C8E784210000A421000064210000E4
:1016E00010B5034B01001868FFF79AFF10BDC04604
:1016F000040000204A424A41802310B55200DB001A
:1017000000F002F810BD0000F0B51D004F4B85B091
:101710001E6804000F000092002E05D0B369002B54
:1017200002D1300000F060FA494B9C4250D17468FD
:10173000009B022B05D0012B00D984E0002D00DA9C
:1017400081E02100300000F0E1F9616B002908D050
:1017500023004433994202D0300000F04BFB0023B9
:1017600063630023A3616360A3891B0603D521691A
:10177000300000F03FFBA389364A1340A381009B51
:10178000022B5AD003AB02AA2100300000F0C2FAAB
:10179000A3891843A081002D24D1029D280000F0C8
:1017A0001FFB0195071E42D1029B0193AB4239D129
:1017B000012040420223A2891343A3810023A36096
:1017C00023004733236023610123636105B0F0BD2B
:1017D000214B9C4201D1B468AAE7204B9C42A7D17F
:1017E000F468A5E7002FD9D0B369002B02D13000EF
:1017F00000F0FAF9009B012B03D1A389009A1A4348
:10180000A2810820A389276027616561184018D04C
:10181000012018400023984211D06D42A360A561B9
:101820001800D3E7019800F0DBFA071EC0D0802330
:10183000A289019D1343A381D6E70020BAE7A560E2
:10184000C4E7A060C2E701204042BFE704000020D7
:10185000842100005CF3FFFFA4210000642100004C
:10186000F8B505000E001400002804D08369002B91
:1018700001D100F0B9F9224B9C422DD16C68A369CB
:10188000A360A3891B0731D52369002B2ED02368C1
:101890002269F7B2981A6369F6B2984205DB210013
:1018A000280000F033F9002826D1A3680130013B5D
:1018B000A36023685A1C22601F706369984204D099
:1018C000A389DB071AD50A2E18D12100280000F0C1
:1018D0001DF9002812D00FE00A4B9C4201D1AC68E0
:1018E000CDE7094B9C42CAD1EC68C8E7210028002B
:1018F00000F00CF80028CAD0012676423000F8BD6E
:1019000084210000A421000064210000364B70B542
:101910001D6806000C00002D05D0AB69002B02D11C
:10192000280000F061F9314B9C420FD16C680C2308
:10193000E25E93B219072DD4D90611D409230120F0
:10194000336037331343A381404270BD284B9C4220
:1019500001D1AC68EBE7274B9C42E8D1EC68E6E7A5
:101960005B0713D5616B002908D0230044339942EB
:1019700002D0300000F03EFA002363632422A389E2
:101980009343A38100236360236923600823A28912
:101990001343A3812369002B0BD1A0218022A389AB
:1019A000890092000B40934203D02100300000F0E8
:1019B000D9F90123A289134011D00023A3606369E0
:1019C0005B42A361002023698342BED10C23E25E07
:1019D0001306BAD540231343A3810138B5E7920714
:1019E00000D46369A360EDE70400002084210000B7
:1019F000A421000064210000F7B58A8905000C00CD
:101A0000130760D44B68002B04DC0B6C002B01DC4B
:101A10000020FEBDE76A002FFAD000232E682B605D
:101A200080235B011A4034D0606DA3895B0706D523
:101A30006368C01A636B002B01D0236CC01A0200CC
:101A4000216A00232800E76AB847A189431C06D110
:101A50002B681D2B31D82C4ADA40D3072DD5002313
:101A6000636023692360CB0405D5431C02D12B6836
:101A7000002B00D16065616B2E600029C8D0230067
:101A80004433994202D0280000F0B4F9002060638A
:101A9000BFE70123216A2800B847431CC5D12B6842
:101AA000002BC2D01D2B01D0162B01D12E60AFE729
:101AB0004023A2891343A381ABE740230B430120BA
:101AC000A3814042A5E70F69002FA1D00B680F60EA
:101AD000DB1B01930023920700D14B69A360019B9C
:101AE000002B00DC94E7019B3A00216A2800A66ADB
:101AF000B047002803DC4023A2891343DFE7019BA2
:101B00003F181B1A0193EAE7010040200B6970B5EA
:101B100005000C00002B01D1002070BD002804D06E
:101B20008369002B01D100F05FF80B4B9C4209D177
:101B30006C680C22A35E002BEED021002800FFF77A
:101B40005BFFEAE7054B9C4201D1AC68F1E7044B2F
:101B50009C42EED1EC68ECE784210000A421000057
:101B60006421000010B5024900F0B2F810BDC04673
:101B70000D1B0000002310B5040003604360836068
:101B800081814366C2810361436183611900082238
:101B90005C30FFF73DFD054B24626362044BA3629A
:101BA000044BE362044B236310BDC046691F000071
:101BB000911F0000C91F0000F51F000070B56825C7
:101BC0004A1E55430E002900743100F05DF9041ED1
:101BD00008D000212A00016046600C30A060683205
:101BE000FFF716FD200070BD836913B50400002BBC
:101BF00028D18364C3640365134B144A1B68826253
:101C00000193984201D101238361200000F020F864
:101C10006060200000F01CF8A060200000F018F8C0
:101C20000022E06004216068FFF7A4FF012209217F
:101C3000A068FFF79FFF02221221E068FFF79AFFDA
:101C40000123A36113BDC04660210000651B000095
:101C5000F8B51E4B07001E68B369002B02D1300097
:101C6000FFF7C2FF4836B4687368013B04D5336898
:101C7000002B07D03668F6E70C22A55E002D0DD0AC
:101C80006834F2E704213800FFF798FF306000283D
:101C9000F0D10C2304003B602000F8BD012320009C
:101CA0005B42E3810233A38165662560A5606560C0
:101CB00025616561A561082229005C30FFF7A8FC59
:101CC0006563A563A564E564E6E7C046602100009E
:101CD000F7B504000700002601914834002C01D11B
:101CE0003000FEBD6368A5680093009B013B009334
:101CF00001D52468F2E7AB89012B08D90E22AB5E2F
:101D0000013304D029003800019B98470643683509
:101D1000EBE7000070B50E001D000E23C95E90B009
:101D20001400002907DA00232B60B3891B0611D4A5
:101D30008023DB000FE001AA00F088F90028F2DB25
:101D4000F022029B12021340054A9B185A4253414B
:101D50002B60EDE740230020236010B070BDC0462B
:101D600000E0FFFFF7B502268B8905000C00334227
:101D700006D0230047332360236101236361F7BD4D
:101D800001AB6A46FFF7C6FF00990700280000F084
:101D90007BF8002806D10C22A35E9A05EFD41E43DF
:101DA000A681E6E70D4BAB628023A2892060134336
:101DB000A381009B20616361019B002B0AD00E234D
:101DC000E15E280000F054F9002803D00123A28925
:101DD0001343A381A0893843A081D0E7651B00008D
:101DE00010B5034B0100186800F04EF810BDC04656
:101DF0000400002070B50500002910D00C1F2368D6
:101E0000002B00DAE418280000F058F91D4A136886
:101E1000002B05D163601460280000F050F970BDFC
:101E2000A34209D9216860188342F3D118685B681E
:101E300041182160EEE713005A68002A01D0A2423F
:101E4000F9D919685818A0420BD1206809185818F8
:101E500019608242E0D110685268411819605A60D6
:101E6000DAE7A04202D90C232B60D5E7216860187D
:101E7000824203D1106852684118216062605C6040
:101E8000CAE7C046C4000020032370B5CD1C9D43A3
:101E9000083506000C2D1ED20C25A9421DD8300095
:101EA00000F00CF9254A14682100002919D1244CAE
:101EB0002368002B03D1300000F044F82060290093
:101EC000300000F03FF8431C2CD10C23300033606D
:101ED00000F0F5F803E0002DDFDA0C23336000207A
:101EE00070BD0B685B1B1AD40B2B03D90B60CC188D
:101EF000256003E08C420ED163681360300000F06F
:101F0000DEF8200007220B30231D9043C31AE7D0D0
:101F10005A42E250E4E74B6863600C00EEE70C00C5
:101F20004968C2E70323C41C9C43A042E0D0211AA5
:101F3000300000F007F8431CDAD1C6E7C4000020E7
:101F4000C8000020002370B5064C0500080023607F
:101F5000FFF7AEF9431C03D12368002B00D02B60A0
:101F600070BDC0466401002070B50C000E25495FAD
:101F700000F0A6F8002803DB636D1B18636570BDD5
:101F8000A389024A1340A381F9E7C046FFEFFFFF90
:101F9000F8B51F008B8905000C001600DB0505D580
:101FA0000E23C95E0022022300F074F8A389054ABB
:101FB00028001340A38132000E23E15E3B0000F0B5
:101FC0001FF8F8BDFFEFFFFF70B50C000E25495F4D
:101FD00000F060F8A389421C03D1054A1340A38195
:101FE00070BD802252011343A3816065F8E7C046AB
:101FF000FFEFFFFF10B50E23C95E00F015F810BD0E
:1020000070B50500080011000022064C22601A007D
:10201000FFF726F9431C03D12368002B00D02B6067
:1020200070BDC04664010020002370B5064C050059
:1020300008002360FFF74EF9431C03D12368002BEF
:1020400000D02B6070BDC04664010020002370B535
:10205000064C0500080011002360FFF73EF9431C01
:1020600003D12368002B00D02B6070BD64010020D9
:10207000002370B5064C050008002360FFF732F915
:10208000431C03D12368002B00D02B6070BDC046D9
:102090006401002070B50500080011000022064C04
:1020A00022601A00FFF720F9431C03D12368002B9C
:1020B00000D02B6070BDC04664010020704770479F
:1020C00070B50500080011000022064C22601A00BD
:1020D000FFF7A4F8431C03D12368002B00D02B602A
:1020E00070BDC0466401002000080042000C0042A0
:1020F000001000420014004200180042001C004280
:10210000AA0B0000A60B0000A60B0000080C0000A4
:10211000080C0000BE0B0000B00B0000C40B000058
:10212000F60B0000900C0000700C0000700C00001A
:10213000FC0C0000820C00009E0C0000740C0000DF
:10214000AC0C0000EC0C00004F69205475726D61FE
:102150002021210D000000004C4544204F4E0D0071
:102160000800002000000000000000000000000047
:10217000000000000000000000000000000000005F
:10218000000000000000000000000000000000004F
:10219000000000000000000000000000000000003F
:1021A000000000000000000000000000000000002F
:1021B000000000000000000000000000000000001F
:1021C00000000000F8B5C046F8BC08BC9E46704749
:1021D000DD000000F8B5C046F8BC08BC9E4670475C
:0421E000B500000046
:1021E400010000000800002000000000842100001D
:1021F400A421000064210000000000000000000091
:1022040000000000000000000000000000000000CA
:1022140000000000000000000000000000000000BA
:1022240000000000000000000000000000000000AA
:10223400000000000000000000000000000000009A
:08224400000000000000000092
:0400000300001139AF
:00000001FF
