S011000042696B654369636C6F2E73726563AE
S1130000682100209912000095120000951200004A
S113001000000000000000000000000000000000DC
S11300200000000000000000000000009512000025
S1130030000000000000000095120000951200006E
S11300409512000095120000951200009512000010
S11300509512000095120000951200009512000000
S113006095120000CD0B0000DD0B0000ED0B00002D
S1130070FD0B00000D0C00001D0C0000951200008B
S113008095120000951200009512000095120000D0
S1130090951200000000000000000000951200000E
S11300A095120000000000009512000000000000FE
S11300B00000000010B5064C2378002B07D1054B37
S11300C0002B02D0044800E000BF0123237010BDC0
S11300D06800002000000000A43E0000084B10B59A
S11300E0002B03D00749084800E000BF0748036815
S11300F0002B00D110BD064B002BFBD09847F9E72D
S1130100000000006C000020A43E0000A43E00009B
S113011000000000F0B5DE4657464E464546E0B5C1
S113012087B08046049116001F000022002300219E
S11301308B463F2401202100009601975C460394DE
S11301404446059413E02024641A0500E540A846BB
S113015014E0009C019D121BAB415C464D462C43B0
S1130160A346039C45462C430394013925D32024FC
S113017064420C19E7D40500A540A84604008C404D
S1130180A14692185B4114001D00059E4F463E4057
S1130190B446049E47463E40B246664657463E43F2
S11301A003D00600264332002B00009C019D9D4293
S11301B0DBD8CED19442D8D8CBE7039B584619005C
S11301C007B03CBC90469946A246AB46F0BD10B57C
S11301D0490840230024814202D2180010BD1C00AB
S11301E0091A631C9BB28842F9D94023FF2CF4D826
S11301F014800023F1E70000F0B583B00F0016006F
S113020008AA117804004C434022BC4202D91000D1
S113021003B0F0BD002B14D1020008000021194CDA
S1130220A04701003A0000230020174CA0470022F9
S11302300123121A8B41120C1B041A433280002230
S1130240E5E70022012BF9D10A00002300210D4C1F
S1130250A04702000B0000920193380000210A4CD1
S1130260A047050080239B0140229842CFD8790FF4
S1130270F800009A019BA047EA00821AD2B2520306
S11302802A43DBE7E11600001501000010B582B037
S113029004000E4B1B78002B07D0002905D10B4B13
S11302A05B78834210D01D200CE001A90C70132050
S11302B0074B98471320074B9847044B5C70012267
S11302C01A70002002B010BD0020FBE7840000205B
S11302D03D110000B1100000404B984231D00AD9C2
S11302E03F4B98424DD03F4B98425AD03E4B984298
S11302F037D0002070473D4B98420CD03C4B98427D
S1130300F7D1012917D000295DD0022915D003297E
S113031015D00020EEE7012907D0002951D0022989
S113032005D0032905D00020E4E73248E2E732484B
S1130330E0E73248DEE73248DCE73248DAE73248C1
S1130340D8E7012907D000293FD0022905D0032985
S113035005D00020CEE72D48CCE72D48CAE72D482C
S1130360C8E7012907D0002931D0022905D0032983
S113037005D00020BEE72848BCE72848BAE728484B
S1130380B8E7012907D0002923D0022905D0032981
S113039005D00020AEE72348ACE72348AAE723486A
S11303A0A8E7012907D0002915D0022905D003297F
S11303B005D000209EE71E489CE71E489AE71E4889
S11303C098E71E4896E7032094E71D4892E71D48E6
S11303D090E71D488EE71D488CE7C0460010004298
S11303E000180042001C00420014004200080042B1
S11303F0000C004203000500030006000300070090
S11304000300010003001E0003001F0002000D0092
S113041002000E0002000F0003001100030012008E
S11304200300130005003F0005003E0005005200D4
S11304300300170003001800030019000300040060
S113044002000C0003001000050053000300160016
S113045030B587B00B4B6A4632CB32C232CB32C294
S1130460009B83420BD001239A0069465258824272
S113047006D00133062BF7D1002007B030BD00238E
S1130480D8B2FAE7AC3C0000F0B5C64600B50C00A3
S1130490904600280FD1002A11DD8F18094E0A4D0D
S11304A0306821002B6898470134BC42F8D140469B
S11304B004BC9046F0BD01235B429846F7E78046B2
S11304C0F5E7C046D4000020CC000020F0B5C646B5
S11304D000B50E0015000138022810D8002A11D0EA
S11304E000240C4B98460C4F43461868315D3B681A
S11304F09847002808DB0134A542F5D106E0012421
S1130500644203E0140001E001246442200004BCBE
S11305109046F0BDD4000020D000002070B50D003E
S1130520084B9847084C094A094BA047094A0A4B0B
S1130530A0470022094B0A4CA0470A4B9847286061
S113054070BDC046D5290000D524000052B81E85D0
S1130550EB510440182D4454FB210940000059403C
S11305606D1E0000592A00000023C360002282612E
S1130570836042600360436170470000F0B5CE467B
S1130580474680B583B00600114D12490069A8475B
S1130590114CA04783B299460E49B068A847A047BA
S11305A083B298460B49F068A847A04787B20B4925
S11305B07069A847A04780B200904B464246390074
S11305C00748084CA04703B00CBC90469946F0BDC0
S11305D0B51800000000C8423517000000007A4436
S11305E0C43C0000012C0000F0B5DE4657464E46E0
S11305F04546E0B591B005000C00160029600800DE
S1130600BC4B9847020023680520DB0706D511B0D0
S11306103CBC90469946A246AB46F0BD23681730D1
S11306209B07F4D4B449086A971C0123BB400343D5
S11306300B620FA92D27F35D0B701432D3B2029312
S11306401800AE4B98470298AD4B9847F05D0021D7
S1130650AC4B9847F37A6B712423F35CAB7125237D
S1130660F35CEB71F37E2B72337F6B722B689846CD
S11306701800A04B9847143000220E2306A98C467C
S113068063441A80328A02928023DB019A4200D1A9
S11306909EE00FD9C023DB01029A9A4200D192E076
S11306A080231B029A4200D01FE1032306930023F8
S11306B0079308E080239B019A4200D015E11023A0
S11306C006930F3B079333680593F36803937369A9
S11306D00493337E9B462623F35C9A4673689946BB
S11306E0002B00D1A0E080235B05994500D184E074
S11306F0737E002B02D0B37E424693732A68029F16
S1130700D369002BFCD10E3306AA944663441B889C
S113071042469381059B039A1343049A13434A4622
S113072013431F435B461B021F4353465B071F4390
S11307302723F35C002B01D104331F43737E9B02F8
S1130740327F52021343727F120213432422B25C9B
S1130750520413432522B25C12041343B17AF27A91
S1130760114319433389FF2B00D181E080225204C5
S1130770174319432C23F35C002B03D1624B9B7862
S11307809B0701D580231F432A68D369002BFCD122
S1130790434659602A68D369002BFCD143461F6045
S11307A00EAB80221A7000225A70DA709A70336B82
S11307B00A93736B0B93B36B0C93F36B02930D93CC
S11307C000270AAE63E008230693073B07937AE702
S11307D033680593F368039373690493337E9B46EC
S11307E02623F35C9A4673689946002B18D080231D
S11307F05B05994501D0002025E02723F35C002BFD
S113080000D075E7336A1F00C0B2404B984701001F
S11308100E2206AB9C46624438003D4B984712E0DA
S113082008230693002307932723F35C002B0ED0A1
S1130830069B0093079B0E2206A98C466244B16A6C
S1130840306A344FB847002800D0E0E650E7336AF6
S11308501F00C0B22D4B98470100069B0093079BD5
S11308600E2206A88446624438002A4FB847EAE7B5
S1130870F37E002B00D17DE78023DB041F4379E75F
S11308802000254B984707E00137042F0DD0F9B21B
S1130890BB0098590028F3D0431CF5D00EA908706A
S11308A0000CC0B21D4B9847EEE70023EB602B61B0
S11308B06B61AB61EB612B62AB626B620022EB8517
S11308C0AB853033EA540133EA540133EA5401333B
S11308D0EA542868074B984704001149114B98477C
S11308E0A400114BE550002091E610230693002349
S11308F00793E8E651040000000400403D110000A5
S1130900B11000008D0200000020004159110000C8
S1130910CF010000F9010000D902000035120000E7
S1130920C9090000610B0000D8000020C2791C2313
S1130930002A01D118007047C28D92B2173B002AD9
S1130940F8D10368DA69002AFCD1198502211A7EDC
S11309500A42FCD00023EDE782791C23002A01D14E
S113096018007047828D92B2173B002AF8D10268B2
S1130970107E4007F4D5D369002BFCD1538BDBB236
S113098098061DD0980703D5022353831833E7E74D
S1130990580703D5042353831A33E1E7D80703D553
S11309A0012353831233DBE7D80603D51023538383
S11309B03233D5E79B0603D5202353832133CFE776
S11309C0138D0B800023CBE7F8B58000624BC5582C
S11309D02C68E369002BFCD1237EA67D1E403023C6
S11309E0EB5C3122AF5C1F40F30722D5EB8D9BB249
S11309F0002B1CD0AA6A1378DBB2511CA962697956
S1130A0001290ED09BB2DB05DB0D2385EB8D013B69
S1130A109BB2EB85002B0CD1013323750133A375F5
S1130A2007E0517809020B430232AA62EBE7012383
S1130A302375B30706D50223237500223133EA5404
S1130A40FB071AD4730765D5AB8D9BB2002B5FD01F
S1130A50638BDBB21A0714D43F221340002B34D02B
S1130A609A0711D51A223223EA54303B63837B0759
S1130A7050D528006B6998474CE02800EB689847EC
S1130A80E0E737221340E9E75A0705D51E2232234F
S1130A90EA542E3B6383EAE7DA0705D513223223AF
S1130AA0EA54313B6383E2E7DA0605D54222322376
S1130AB0EA54223B6383DAE720221A42D7D0213258
S1130AC03223EA54123B6383D1E7238DDB05DB0D2C
S1130AD0DAB2696A0A706A6A511C69626979012921
S1130AE010D0AB8D013B9BB2AB85002B12D10433EC
S1130AF0237500222E33EA54BB070BD528002B693B
S1130B00984707E01B0A53706B6A01336B62E8E78E
S1130B1004232375F30604D5102323752376FB06DB
S1130B200ED4B30604D52023237523763B070BD4B8
S1130B30330704D5082323752376BB0608D4F8BDF0
S1130B402800EB699847ECE72800AB699847EFE782
S1130B502B6A28009847F2E7D8000020704700006D
S1130B60F0B50A4B1B78002B0CD1094F094E0A4DE6
S1130B700024DE515A1914600433182BF9D10122D0
S1130B80024B1A708000024BC150F0BD8600002059
S1130B90880000205D0B0000D800002000B583B061
S1130BA009236A4613700133537001339370013380
S1130BB0D3700133137101335371034B98476B4660
S1130BC0185603B000BDC0465104000010B5024BD6
S1130BD01B680020984710BD8800002010B5024B08
S1130BE05B680120984710BD8800002010B5024BB7
S1130BF09B680220984710BD8800002010B5024B66
S1130C00DB680320984710BD8800002010B5024B14
S1130C101B690420984710BD8800002010B5024BC2
S1130C205B690520984710BD880000200C4B1B68A9
S1130C30002B06D1EFF31083002B07D00022094BC1
S1130C401A70074A136801331360704772B6BFF312
S1130C505F8F0022044B1A700132024B1A70F0E7C6
S1130C60A0000020A400002000000020084B1A6807
S1130C70013A1A601B68002B09D1064B1B78002B24
S1130C8005D00122044B1A70BFF35F8F62B6704720
S1130C90A0000020A400002000000020F0B583B0D4
S1130CA001AC012565700027A77025702100132071
S1130CB0064EB04780221203054B9A612770657077
S1130CC021001C20B04703B0F0BDC046D50C000085
S1130CD00044004100B583B001AB80221A700A7849
S1130CE05A704A789A708A78DA701900014B9847DA
S1130CF003B000BD3512000010B5082803D88000E9
S1130D001B4B1B589F46002030E01A4B18692DE0FE
S1130D10194B1B6A9B059B0F1848D84026E0154BBE
S1130D20586923E0134B1B6800209B071ED512490A
S1130D301022CB681A42FCD00E4B1B685B0701D40F
S1130D400F4813E000200F4B98470A4B9B681B0485
S1130D501B0C58430AE05023074AD35C00205B076E
S1130D6004D5044BD86801E08020000210BDC046C1
S1130D70D43C0000A80000200008004000127A00C3
S1130D80006CDC025911000070B50C490B6A047840
S1130D90857840780122104080014026B343034304
S1130DA02A40D201802083431343032222401202AB
S1130DB00348034013430B6270BDC0460008004063
S1130DC0FFFCFFFF082803D88000254B1B589F46D3
S1130DD0172044E0234A136A02210B4313620020C4
S1130DE03DE0204A936902210B439361002036E0E1
S1130DF01C4A138A02210B43138200202FE0194A54
S1130E00938A02210B439382002028E016490B6841
S1130E10022213430B60134B9A8419000E32CB68E1
S1130E201A42FCD0104A91680E4BD96252689A62F9
S1130E3000229A8419001032CB681A42FCD00A4B63
S1130E401B689BB2074A9384002008E005494422AA
S1130E508B5C022003438B54002000E00020704789
S1130E60F83C000000080040A800002030B585B020
S1130E70C222D2001A4B9A601A4A53681E218B432D
S1130E80536001236A4613700024174DE0B269468B
S1130E90A8470134252CF9D103A800244470012566
S1130EA085700470114B98470620114B9847114BDD
S1130EB09847114B1C725C729C72DC7201956B46F4
S1130EC05C7006236A4613701472547269460020DB
S1130ED00A4B984700200A4B984705B030BDC046DE
S1130EE000080040004000413D110000890D000051
S1130EF0C50D0000050F000000040040290F00008C
S1130F00E10F0000064A936908210B439361012213
S1130F10044B1A7019000B781342FCD17047C04679
S1130F2000040040000C004070B5060004000D7879
S1130F302D0205434B78002B02D08023DB021D4396
S1130F404B7A002B02D080231B031D4348680128E1
S1130F5010D9431E184234D1022830D9022300226A
S1130F6001325B009842FBD8120232431400802302
S1130F705B031D430B7A002B02D080239B031D438C
S1130F80134A53785BB2002BFBDB124B9847124B8E
S1130F901E700F4A53785BB2002BFBDB0C4B9C603A
S1130FA01A0053785BB2002BFBDB094A536880219B
S1130FB049020B401D435560084B984770BD002201
S1130FC0D2E70402344380239B021D43D2E7C04688
S1130FD0000C00402D0C0000080C00406D0C0000BB
S1130FE010B504000B4A53785BB2002BFBDB0A4BB1
S1130FF098470A4B1C70074A53785BB2002BFBDB03
S1131000044A516880235B020B435360044B9847A6
S113101010BDC046000C00402D0C0000040C004024
S11310206D0C000070B504001A4A53785BB2002BB3
S1131030FBDB194B9847194B1C70164A53785BB26B
S1131040002BFBDB134E7068C004C00E144B984792
S11310500500124B1C707668F602F60F114B1C70DB
S11310600C4A53785BB2002BFBDB0A4B9C682402CE
S1131070240C0D4B9847002E07D1012C07D92100D1
S113108028000A4B9847050001E00134E540280098
S113109070BDC046000C00402D0C0000040C004044
S11310A0F90C0000080C00406D0C00005515000000
S11310B010B50400064B9847064B1C70064A53882B
S11310C08021C9010B435380044B984710BDC0468F
S11310D02D0C0000020C0040000C00406D0C0000C0
S11310E010B504000F4B98470F4B1C700F4A5388E0
S11310F01B05180F53880E490B40538053880D4924
S11311000B40538011008022D2014B881342FCD142
S113111006494A8803020648024013434B80064BA3
S1131120984710BD2D0C0000020C0040000C00403C
S1131130FFF0FFFFFFBFFFFF6D0C000010B50C7840
S113114024020443024B9847A4B2024B5C8010BDB6
S1131150E1100000000C004010B50400064B984755
S1131160064B1C70064B5C882405240F054B9847DE
S11311702000054B984710BD2D0C0000020C0040C8
S1131180000C00406D0C00002510000030B5D37831
S1131190002B35D11378802B29D01B0680246402C0
S11311A0234354780225AC4306D19478002C20D1F3
S11311B08024A402234341605478013C012C1CD9AF
S11311C00D042D0CA024E4052C431C4384620D0C57
S11311D0D02424062C431C438462D478002C22D1CE
S11311E05B031CD59378012B1ED0416117E00023CB
S11311F0D7E7C024E4022343DDE70D4C2340DFE7B7
S113120041600C04240CA023DB05234383620C0CF3
S1131210D0231B0623438362D378002B03D1537856
S1131220013B012B02D930BD8161F8E78160FAE707
S1131230FFFFFBFF10B50A00C1090023002904D1F8
S11312404309DB0105498C4663441F2420400121E6
S113125081401800024B984710BDC046004400412D
S11312608D1100007047000010B5054B9847054BE1
S11312709847054B9847054B9847054B984710BD31
S11312806D0E00009D0C0000651200006512000048
S113129065120000FEE70000F8B52A4A2A4B9A427C
S11312A011D01A00294B9A420DD2294A03339B1AB2
S11312B09B0801339B000022234822498C58845008
S11312C004329A42FAD1234A234B9A420AD2D34394
S11312D021495B1803218B4304339B18002102C26C
S11312E09342FCD11D4AFF211D4B8B439360FD3972
S11312F090235B001B4AD1501B4AD3780325AB4390
S113130002242343D370D3780C27BB4308263343EA
S1131310D370164B987B302290432022104398734D
S1131320997BB943314399739A7BAA4322439A73B5
S11313300F4A536880210B4353600E4B98470E4B62
S11313409847FEE7A43E000000000020680000204B
S113135004000020680000206801002000ED00E087
S113136000000000007000410050004100480041AE
S113137000400041A92B0000FD1300000300064AB1
S11313801268002A04D0044A1068C3181360704716
S11313900249014A1160F6E7C000002068210020DC
S11313A001204042704780239B014B60002070471E
S11313B0012070470020704770B582B005000E0010
S11313C000226B46DA80064C6B46991D2800A04724
S11313D00028F9D16B4606331B88337002B070BD08
S11313E05909000070B505008CB2034E2100280095
S11313F0B0470028FAD170BD2D090000F0B589B0BE
S11314003C4B98473C4A8023DB0513600023536020
S1131410FF21118100219372D37296208001106202
S11314200124242014540130145401301354013085
S113143013549362053013540130135453611382CF
S1131440D3761176117751761323937651778023CF
S11314505B03D360294B1363294B536301235B4222
S11314609363D363274D284B1D602849284B19608B
S11314702849294B196029492800294B9847294FA5
S11314803B6898680021284EB0473B6858680021A3
S1131490B0472E683000254B98471F2318408440DE
S11314A0234B1C602B68DA69002AFCD133680232B2
S11314B0134333601F48204B984701A81F4B98479C
S11314C001A91D201E4B98471E4C1F4E1F4D07E0BF
S11314D0802212031E4B5A612000B04701A8A8477E
S11314E01B4B1B6ADB00F3D580221203184B9A6155
S11314F0F6E7C0466912000024010020030004003E
S113150003000500F0000020D4000020E5130000D3
S1131510D0000020B9130000CC00002000080042D5
S1131520E905000004000020092D00009D0B0000C7
S113153000E100E01C3D0000012C000069050000F2
S11315401D050000243D0000F52C00007D05000071
S113155000440041002243088B4274D303098B42A8
S11315605FD3030A8B4244D3030B8B4228D3030C6F
S11315708B420DD3FF22090212BA030C8B4202D311
S11315801212090265D0030B8B4219D300E0090A39
S1131590C30B8B4201D3CB03C01A5241830B8B4242
S11315A001D38B03C01A5241430B8B4201D34B032B
S11315B0C01A5241030B8B4201D30B03C01A524190
S11315C0C30A8B4201D3CB02C01A5241830A8B4215
S11315D001D38B02C01A5241430A8B4201D34B02FE
S11315E0C01A5241030A8B4201D30B02C01A524162
S11315F0CDD2C3098B4201D3CB01C01A5241830916
S11316008B4201D38B01C01A524143098B4201D34F
S11316104B01C01A524103098B4201D30B01C01A7A
S11316205241C3088B4201D3CB00C01A52418308F4
S11316308B4201D38B00C01A524143088B4201D321
S11316404B00C01A5241411A00D201465241104681
S11316507047FFE701B5002000F006F802BDC04660
S11316600029F7D076E770477047C0468446081CC7
S11316706146FFE71FB500F0DBF8002801D4002124
S1131680C8421FBD10B500F06DF84042013010BDD6
S113169010B500F0CDF8002801DB002010BD0120BA
S11316A010BDC04610B500F0C3F8002801DD0020CD
S11316B010BD012010BDC04610B500F079F8002817
S11316C001DC002010BD012010BDC04610B500F0A3
S11316D06FF8002801DA002010BD012010BDC046BB
S11316E0F0B5CE46474615042D0C2E0080B50704F0
S11316F0140C3F0C9946030C7E435D4367436343DC
S11317007F19340CE4199C46A54203D980235B025B
S11317109846C4444B46514343433604360C250C87
S113172024046544A4195918491920000CBC904696
S11317309946F0BD9E2110B5C905041CFFF7C6FFEC
S1131740002803D1201C00F071FB10BD9E21201C39
S1131750C90500F0CFF900F069FB80231B069C4605
S11317606044F2E770B5420045024E024C00C30FDC
S11317706D0A120E760A240EC90F0120FF2A06D024
S1131780FF2C03D0A24201D1B54206D070BD002D7A
S1131790FCD1FF2CFAD1002EF8D18B4206D00120C7
S11317A0002AF3D12800451EA841EFE70020EDE709
S11317B0F0B5420045024C02C30F48006D0A120EF8
S11317C0640A000EC90FFF2A1ED0FF2821D0002A68
S11317D00AD16E426E41F6B200280FD1002C0DD111
S11317E00020002D09D005E0002801D1002C01D0F3
S11317F08B4211D0012158420843F0BD002EF7D08E
S1131800012001390843F8E7002DDED002204042D0
S1131810F3E7002CDBD0F9E78242EBDC04DBA542E2
S1131820E8D80020A542E8D20121581E0843E4E785
S1131830F0B542004D024C004602760A120EC30F68
S11318406D0A240EC90FFF2A16D0FF2C18D0002AC7
S11318500AD170427041C0B2002C15D0002805D0C6
S1131860012001390843F0BD002C13D0994214D053
S113187001205B421843F6E70220002EF3D1E4E78F
S11318800220002DEFD1E2E7002DE7D10020002E49
S1131890E9D0EDE7002DE9D1EAE7A24206DCDFDB7F
S11318A0AE4203D80020AE42DAD3DCE7012049423D
S11318B00843D8E7F8B557464E464546DE46E0B5F8
S11318C04702460088467F0A360EC40F002E47D0D2
S11318D0FF2E24D0FB008027FF041F4300239946DA
S11318E09A467F3E43465D025800DB0F6D0A000EA8
S11318F0984643D0FF283BD0EB0080250022ED041E
S11319001D437F383618731C41469B464B46614045
S113191013430F2B64D875489B00C3589F46002F70
S113192042D108239946063BFF269A46DAE7414608
S1131930022A28D0032A00D1CEE0012A00D0ACE04C
S1131940114000200022CCB24002D205400AE40734
S1131950104320433CBC90469946A246AB46F8BD92
S1131960002F15D104239946033B00269A46B9E774
S1131970FF200222002DC5D00322C3E7002D19D178
S113198000200122BEE70124FF220C400020DBE7F7
S1131990380001F0EBF87626431F9F40002376427F
S11319A0361A99469A469DE70C239946093BFF2629
S11319B09A4697E7280001F0D9F8431F9D40762303
S11319C05B42181A00229DE780200024C003FF22F6
S11319D0BAE73D005246ABE73D0021005246A7E777
S11319E03B0C9C462A04120C2B0C140060466546E2
S11319F03F043F0C7C4342435D437B43270C9B18CD
S1131A00FF18BA4203D980235B029C466544240430
S1131A103A04240C121993015C1EA3413F0C920E4C
S1131A207D191A43AD0115432B0104D501235E46EC
S1131A306A081D40154332007F32002A25DD6B07FA
S1131A4004D00F232B40042B00D004352B0103D5E5
S1131A503200274B80321D40FE2A94DC0124A80169
S1131A60400AD2B20C406FE78020C003074207D07F
S1131A70054205D128434002400A4446FF2263E759
S1131A8038434002400AFF225EE70124A31A1B2BBD
S1131A9005DD0C400022002056E75E46CBE72A0015
S1131AA02020DA40C31A9D402B005D1EAB41134336
S1131AB05A0704D00F221A40042A00D004335A01D2
S1131AC004D5012401220C4000203DE701249B01A0
S1131AD0580A0C40002237E780200124C003284321
S1131AE04002400A0C40FF222EE7C0462C3D000075
S1131AF0FFFFFFF7F0B54F46D64646464400C0B553
S1131B00C20F47024802400A844666467B0A4800E0
S1131B10C90F9A46240E1500DB00000E8946F60014
S1131B20FF2800D18FE001214F464F4039009142F8
S1131B3066D0221A002A00DC9DE000283DD1002E48
S1131B4000D18BE0511E002900D0B5E001249B1B7D
S1131B505A0144D59B019F09380001F007F8053864
S1131B608740844200DD96E0041B3A0020200134C3
S1131B70E240041BA7403B005F1EBB41002413430B
S1131B805A0704D00F221A40042A00D004335A0101
S1131B9027D50134FF2C00D179E001229B015B0A97
S1131BA0E4B22A405B02E405580AD20720431043FA
S1131BB01CBC90469946A246F0BDFF2CE0D0802183
S1131BC0C9040E431B2A7BDC31002020D140821A39
S1131BD09640721E96410E439B1B5A01BAD45A0773
S1131BE0D0D10122DF082A40FF2C33D1002F00D1AD
S1131BF0A8E08023DB033B435B025B0AFF24D1E7BD
S1131C00211A00294CDD00282AD0FF2CB8D08020CE
S1131C10C00406431B2900DDAFE030002027C84084
S1131C20791A8E40711E8E4106439B195901D6D5EF
S1131C300134FF2C00D185E001227A491A405B0867
S1131C400B4013439CE7002E00D070E76BE73B1E6C
S1131C50C5D100227B025B0AE4B2A3E714008FE73C
S1131C60002E4DD0481E002857D19B1901245A013B
S1131C70B5D50224E0E7002A25D1621CD2B2012A9C
S1131C8072DD9F1B7A0135D5F71A0D0064E7012236
S1131C9000232A4086E73B00634A241A13406FE777
S1131CA000296CD1611CC8B201284EDDFF2949D03E
S1131CB09B195B080C0063E7FF2A41D00A0081E707
S1131CC001269B1B89E7002C1CD0FF2821D08024EF
S1131CD0E404524223431B2A00DD96E01C00202525
S1131CE0D440AA1A93405A1E93412343F31A040082
S1131CF00D002DE7002F00D02EE700220024A9E7D5
S1131D000C003DE7002B58D0D243002AEED0FF2828
S1131D10E1D13300FF240D0032E7FF2910D0010088
S1131D2078E7002B6ED0FF24002E00D128E7802214
S1131D305146D203114203D06146114200D133000F
S1131D40FF241DE7FF2400232CE7002CE9D1002BFE
S1131D5063D0002E00D113E79B195A0100D43EE74B
S1131D60314A0C0013400BE7002C1ED1002B2FD15D
S1131D70002E4FD033000D0002E7012655E7002C5A
S1131D801FD1002B43D0C94300290BD0FF2839D0E1
S1131D901B2944DC1C002027CC40791A8B40591E97
S1131DA08B4123439B19040040E7002B1AD1002EDA
S1131DB024D180270022FF031BE7330004000D0019
S1131DC0DEE6FF281ED08024E40449422343DFE7F3
S1131DD0002E00D1D4E69F1B7A0100D437E7F31A12
S1131DE00D00CDE6FF24002E00D1C9E68022504626
S1131DF0D2031042A4D060461042A1D133000D009A
S1131E00FF24BDE63300FF24BAE601236EE7330066
S1131E100400B5E6002700221CE73300B0E60123E6
S1131E20C0E7C046FFFFFF7DFFFFFFFB4102430009
S1131E30C20F490A1B0E00207E2B0DDD9D2B0CDCEE
S1131E40802000040143952B0ADC9620C31AD94054
S1131E504842002A00D108007047034BD018FBE722
S1131E60963B9940F4E7C046FFFFFF7FF0B5574625
S1131E704546DE464E46E0B54C000E0387B0834629
S1131E8092461D008046360B640DCF0F002C4FD0B8
S1131E906F4B9C4235D08023420F1B04F600134342
S1131EA033439946C30098466A4B00269C46002358
S1131EB0644403932B031B0B9B466B00ED0F5046AE
S1131EC05B0D01955ED0624A934253D05A46D100CD
S1131ED08022400F120402430A4393465246D10023
S1131EE05C4A944600226344380068408446029069
S1131EF0E41A16430F2E00D9B4E0574BB6009B5991
S1131F009F460300334399466CD10023984602331D
S1131F1008260393CEE7CB464146039A0197022A4B
S1131F2065D1019B4A4C9C460023002298466BE0F5
S1131F300300334399464ED0002E00D1BCE130005B
S1131F4000F014FE03000B3B1C2B00DDACE11D2252
S1131F50D31A5A460100DA4008398E40130033433D
S1131F6099465B468B40984600233C4C0026241A35
S1131F7003939FE751465A46114329D100229346C1
S1131F800232B1E7594601431ED05B46002B00D113
S1131F909EE1584600F0EAFD03000B3B1C2B00DDDC
S1131FA08FE102005946083A91408B461D21CB1A15
S1131FB05146D9400B0059460B4351469B4691402C
S1131FC0264B00221B1A8FE7002301229B468BE736
S1131FD05146032288E7002398460133042600244F
S1131FE0039367E70323B14603930C2662E7032AAE
S1131FF000D15CE2019B012A00D0E4E113409C463D
S1132000002300240022984600211203130B0A0D1A
S113201012051A432305124C4046224013436246DC
S11320205B00D2075B081343190007B03CBC904621
S11320309946A246AB46F0BD002380229C4612037B
S11320409846034CE0E70023014C00229846DBE766
S1132050FF07000001FCFFFF6C3D00000DFCFFFFCB
S1132060FFFF0F80D94500D939E100D134E10023C5
S113207046464D469A46013C5B460A0E1B021A43ED
S11320800B02170C039313041B0C39002800904611
S11320900193FFF75FFA0200019B83465A4328002D
S11320A039009146FFF7DCFA350C09040D43A945C4
S11320B00DD95B464544013BA84500D93AE1A94501
S11320C000D837E102235B429C464544E3444B4637
S11320D0EB1A390018000493FFF73CFA019B050042
S11320E04343390004989946FFF7BAFA33040904C4
S11320F01B0C0B43994509D943446A1E984500D9E2
S11321001AE1994500D817E1023D43444A469B1A17
S11321105A4612042A4303999346100C0A0C91461A
S113212009045A46090C4E460D001204120C45438C
S1132130059151437243704352190E0CB2189542E3
S113214003D980256D02AC466044150C09041204C1
S1132150090C28185218834200D2CEE000D1C8E0FE
S11321601D1A53469E1AB24592415242AB1A9A46E0
S1132170984500D117E139001800FFF7EBF9019BEE
S113218005004343390050460493FFF769FA049865
S11321900B04310C1943884209D941446B1E88450C
S11321A000D907E1884200D804E1023D4144049B80
S11321B0CB1A180039000493FFF7CCF9019B82462F
S11321C04343390004980193FFF74AFA01980B043A
S11321D03104090C194388420DD953464144013B4B
S11321E0884500D9E8E0884200D8E5E002235B4254
S11321F09C464144E244019B2D04CE1A5146294396
S1132200059D4F462A000B04080C1B0C5A434543FA
S11322107B4378435B19170CFB189D4203D9802537
S11322206D02AC4660441D0C12041B04120C2818E9
S11322309B18864200D293E000D18EE0012319431B
S1132240A04BE318002B00DC99E04A0700D09EE085
S11322505A46D20106D55A469B4B1A4080239346D0
S1132260DB00E318994A934268DD0123029A984CF3
S11322701A400023944698460022C5E680224B4625
S1132280120313420AD05B46134206D11A431203C7
S1132290120BAC4688468E4CB6E64B461A431203E4
S11322A0120BBC468A4CAFE603005A46283B9A40C0
S11322B000239146984657E6584600F057FC2030D4
S11322C040E603005246283B9A400021934677E6B5
S11322D000F04CFC20305FE6884500D2C7E64B4650
S11322E0DE075D0843465B081E434346DB079A4608
S11322F0C2E60025924500D333E7039E5946B4460F
S1132300E244B245AD416D424544EB18013998456C
S113231007D2984200D97FE000D1BCE01D1A8B4659
S11323201FE79845FAD1039D5545F2D943468B469C
S11323301D1A16E79B46CAE61500E7E65A46C90881
S113234052070A435B0590465C0D5A4601230299E5
S113235052021940120B8C4656E6002B00D16FE74F
S113236046444A1EB04529D91100864200D065E78B
S1132370039A934200D061E762E7012149420120B8
S1132380C21A382A21DD029B03409C4638E60F22FC
S11323900A40042A00D15BE70A00111D91429241D0
S11323A05242934454E7474BE318002BE5DD0122E6
S11323B05242F2E71D00FAE69A461CE7B04239D8C9
S11323C06ED011003AE702933AE71F2A3CDC20233F
S11323D09B1A0C005846994098404B1E99415B4605
S11323E0D440D340204308431A00430709D00F23A5
S11323F00340042B05D00100081D88429B415B4229
S1132400D21813023AD50123029A01241A40002358
S1132410944698460022F7E5022149428C46039DE2
S1132420E344AC46E244AA45AD416D424544ED184F
S11324302D1A96E68A1E03994D008D428941494220
S11324404144761803958FE71F204042C31A58462B
S1132450D8400300202A28D040205D46821A9540A7
S113246029434A1E91411943072300220B4009D0F6
S11324700F2300220B400800042BBDD10100530799
S11324805202120BC90819430123884602990024F9
S113249019408C46B8E55245BED88B46002560E607
S11324A0039D9D42C6D3110062E70025D8E7802230
S11324B05B4612031A43019B1203120B9C46884687
S11324C0034CA1E5FF030000FFFFFFFEFE07000031
S11324D0FF070000F0B557464546DE464E46E0B5D8
S11324E00C0398464E00230B87B0070092469B4688
S11324F0760DCD0F002E6BD06D4B9E4235D08024CF
S11325005B46420F2404DB0014431C43C30099467A
S1132510684BA3469C460023002766440293434627
S11325201C035A00DB0F5046240B520D984600D171
S113253076E05F4B9A426DD08023410F1B040B431E
S11325405C49E4008C461C43C300002062444146BD
S1132550B6186940721C0191944607430F2F00D9A5
S1132560B0E0554ABF00D25997465B4603439946AB
S113257000D087E000239B46023308270293CEE76E
S113258042460192022867D0032800D10EE20128B6
S113259000D062E100230024002299460199014001
S11325A0CDB2002112030B0D120B1B051343434A3A
S11325B0240513401C436400ED0764082C4348467B
S11325C0210007B03CBC90469946A246AB46F0BDFC
S11325D0034399464FD05B46002B00D189E158460E
S11325E000F0C4FA03000B3B1C2B00DD7AE11D2232
S11325F0D31A3A0001005C46DA4008398C401300D3
S11326008F4023439B46B94600232D4E0027361A9C
S1132610029384E7534623432AD10024022096E7F9
S11326205346234320D0002C00D157E1200000F072
S11326309DFA03000B3B1C2B00DD49E11D21CB1A45
S113264051460200D9405346083A944093400C4303
S11326501B4A121A00207AE70125019B144C1D40E5
S11326600023002299469CE70024002201206EE703
S1132670534603206BE700239B46013304270026BF
S113268002934CE7032381460C27029347E78022F9
S11326900023002512039946054C82E75C464B460D
S11326A002986FE75C464B46019502986AE7C0467C
S11326B0FF07000001FCFFFFAC3D0000FFFF0F809F
S11326C00DFCFFFF4A464946170C1A0C1B041B0C51
S11326D008041900000C41431500884619007D4385
S11326E07943039589462900150045434D440295D5
S11326F045462D0CAA46029D5544A94506D98A464D
S1132700802149028946CA4451460391290C049107
S1132710414609042D04090C88462900250C24048B
S11327204144240C0591210041438846210079430A
S11327308A466843414650448146080C48446F43E6
S1132740824503D98021490289464F44010C8946B8
S113275039004944029141460F0404993F0C8846CC
S11327600004C01980444146049159460F0C0904E1
S1132770090C884659438A463900514389464146E3
S11327804A435146090C8B467B43D2185A44934220
S113279003D980235B029B46D94451460904090CA2
S11327A08A46414661437C43130C12044B44524411
S11327B0A1468A463C0041466C434D4351464D4434
S11327C00F0C7D19A94503D9802149028846444448
S11327D0049F0399B84641448B4683458041414256
S11327E08846514608042F04000C3F1858460299A5
S11327F010188946904292414F44BA465242994633
S11328009346C244D144CB448F42BF41C24589411F
S113281099459B41934592417F4249422D0C524236
S11328200F435B4213437F19FF185B463C19DB0DD2
S1132830059A64021C43430213435D1EAB415A468E
S1132840C00D034352021343E20156D501205A0836
S113285003401343E207134364085A4860440028C2
S11328604DDD5A0709D00F221A40042A05D01A1D3B
S11328709A429B415B42E4181300E20104D5802094
S1132880514AC00014406044504A904200DDE3E6DF
S11328900125DB0862071A436402019B9146220B5F
S11328A04405640D1D407CE6802259461203114202
S11328B008D0144206D122431203120B454699460E
S11328C0434C6EE65B461A431203120B404C68E617
S11328D003005446283B9C400023B9E600F046F927
S11328E02030A6E60300283B9F400023BB469946C0
S11328F08AE600F03BF9203074E6B446ADE70125E2
S11329002A1A382A06DD019B00241D4000230022D8
S1132910994646E61F2A21DC20252000AD1A1E0018
S1132920AB40A840D6405D1EAB4130431843D44071
S1132930430709D00F230340042B05D00300181DBF
S113294098429B415B42E418230221D50125019B57
S113295001241D4000230022994622E61F25210060
S11329606D42281AC1400800202A1DD05F35AA1ADA
S1132970944023435C1EA341072503431D400022CA
S1132980002D09D00F2200241A401800042AD6D1A1
S1132990030065076402220BDB082B4301259946DB
S11329A0019B00241D40FCE50024E2E78022012570
S11329B01203224301991203120B0D409946044C51
S11329C0EFE5C046FF030000FFFFFFFEFE07000027
S11329D0FF07000070B5002830D0C317C4185C404E
S11329E0C50F200000F0C2F8174B184A1B1AD21A60
S11329F01F2A18DD164AD21A9440002224035B05CC
S1132A00240B5B0D0021100024030A0D240B120576
S1132A102243104C1B05224013435B00ED075B0867
S1132A202B43190070BD210091400A000B21081AA4
S1132A30C4405B052403240B5B0DE3E7002500235E
S1132A4000240022DEE7C0461E0400003304000018
S1132A5013040000FFFF0F80F0B54C00640D0B035E
S1132A60621C450F5B0A52052B43C90FC500520D6A
S1132A70012A28DD3A4AA618FE2E1BDC002E3EDD74
S1132A8080010200501E82416D0F2A43DB00134374
S1132A905A0704D00F221A40042A00D0043380229B
S1132AA0D2041A405AD00136FF2E03D09B015B0A90
S1132AB0F4B201E0FF2400235802E405400AC907E8
S1132AC020430843F0BD002C07D01D43F2D08020E2
S1132AD0DB0080040343FF26DAE72B4303D00523FE
S1132AE0DB08FF2C03D05B025B0AE4B2E4E7002BB3
S1132AF032D08020C00303435B025B0ADCE7320070
S1132B00173214DB80221E2712041343BF1B1F2F0E
S1132B100FDC144A944664442A00A5402E00A340C6
S1132B20751EAE41FA40334313430026B0E7002438
S1132B30D5E702225242961B1A00F240202F09D0F8
S1132B40094884466444A3402B435D1EAB410026E0
S1132B5013439DE70023F7E70023ADE73400BFE705
S1132B6080FCFFFF82FCFFFFA2FCFFFF1C2101236E
S1132B701B04984201D3000C10391B0A984201D35C
S1132B80000A08391B09984201D30009043902A23A
S1132B90105C40187047C0460403020201010101A1
S1132BA0000000000000000070B500260C4D0D4C24
S1132BB0641BA410A64209D1002601F063F90A4D52
S1132BC00A4C641BA410A64205D170BDB300EB5897
S1132BD098470136EEE7B300EB5898470136F2E721
S1132BE0903E0000903E0000903E0000943E0000A5
S1132BF003008218934200D1704719700133F9E73A
S1132C000FB40B4B13B51C68002C05D0A369002B23
S1132C1002D1200000F0F2FA05AB049AA16820006A
S1132C20019300F0C1FC16BC08BC04B01847C046B0
S1132C300400002070B505000E00002804D083694C
S1132C40002B01D100F0DAFAAB69AC68002B02D199
S1132C50280000F0D3FA244B9C420FD16C68A3895E
S1132C601B0702D52369002B20D12100280000F086
S1132C7057F900281AD00120404270BD1B4B9C42DA
S1132C8001D1AC68EBE71A4B9C42E8D1EC68E6E76B
S1132C90013B0136A360002B04DAA269934216DBE0
S1132CA00A2914D023685A1C226019703178A36849
S1132CB00029EDD1013BA360002B0FDA22000A3179
S1132CC0280000F0D7F8431CD5D00A20D5E722000D
S1132CD0280000F0CFF8431CE8D1CCE70A20236891
S1132CE05A1C22601870C8E7103E0000303E0000F5
S1132CF0F03D000010B5034B01001868FFF79AFF80
S1132D0010BDC046040000204A424A41802310B549
S1132D105200DB0000F002F810BD0000F0B51D0009
S1132D204F4B85B01E6804000F000092002E05D0A2
S1132D30B369002B02D1300000F060FA494B9C4289
S1132D4050D17468009B022B05D0012B00D984E07C
S1132D50002D00DA81E02100300000F0E1F9616B20
S1132D60002908D023004433994202D0300000F0F7
S1132D704BFB002363630023A3616360A3891B06E9
S1132D8003D52169300000F03FFBA389364A134084
S1132D90A381009B022B5AD003AB02AA210030006E
S1132DA000F0C2FAA3891843A081002D24D1029D0A
S1132DB0280000F01FFB0195071E42D1029B0193DE
S1132DC0AB4239D1012040420223A2891343A3819B
S1132DD00023A3602300473323602361012363613D
S1132DE005B0F0BD214B9C4201D1B468AAE7204B49
S1132DF09C42A7D1F468A5E7002FD9D0B369002B72
S1132E0002D1300000F0FAF9009B012B03D1A38911
S1132E10009A1A43A2810820A3892760276165616B
S1132E20184018D0012018400023984211D06D4258
S1132E30A360A5611800D3E7019800F0DBFA071E30
S1132E40C0D08023A289019D1343A381D6E700202B
S1132E50BAE7A560C4E7A060C2E701204042BFE72B
S1132E6004000020103E00005CF3FFFF303E000031
S1132E70F03D0000F8B505000E001400002804D051
S1132E808369002B01D100F0B9F9224B9C422DD16A
S1132E906C68A369A360A3891B0731D52369002B40
S1132EA02ED023682269F7B2981A6369F6B2984261
S1132EB005DB2100280000F033F9002826D1A3689F
S1132EC00130013BA36023685A1C22601F706369B0
S1132ED0984204D0A389DB071AD50A2E18D1210001
S1132EE0280000F01DF9002812D00FE00A4B9C4284
S1132EF001D1AC68CDE7094B9C42CAD1EC68C8E764
S1132F002100280000F00CF80028CAD001267642DF
S1132F103000F8BD103E0000303E0000F03D0000DF
S1132F20364B70B51D6806000C00002D05D0AB694A
S1132F30002B02D1280000F061F9314B9C420FD1E3
S1132F406C680C23E25E93B219072DD4D90611D410
S1132F5009230120336037331343A381404270BDFA
S1132F60284B9C4201D1AC68EBE7274B9C42E8D14B
S1132F70EC68E6E75B0713D5616B002908D02300F2
S1132F804433994202D0300000F03EFA00236363D8
S1132F902422A3899343A3810023636023692360CC
S1132FA00823A2891343A3812369002B0BD1A021F9
S1132FB08022A389890092000B40934203D0210010
S1132FC0300000F0D9F90123A289134011D0002365
S1132FD0A36063695B42A361002023698342BED17D
S1132FE00C23E25E1306BAD540231343A3810138B0
S1132FF0B5E7920700D46369A360EDE704000020FD
S1133000103E0000303E0000F03D0000F7B58A8914
S113301005000C00130760D44B68002B04DC0B6C18
S1133020002B01DC0020FEBDE76A002FFAD000234C
S11330302E682B6080235B011A4034D0606DA38915
S11330405B0706D56368C01A636B002B01D0236C41
S1133050C01A0200216A00232800E76AB847A18940
S1133060431C06D12B681D2B31D82C4ADA40D307D8
S11330702DD50023636023692360CB0405D5431C4D
S113308002D12B68002B00D16065616B2E60002992
S1133090C8D023004433994202D0280000F0B4F988
S11330A000206063BFE70123216A2800B847431C5E
S11330B0C5D12B68002BC2D01D2B01D0162B01D1FA
S11330C02E60AFE74023A2891343A381ABE74023DB
S11330D00B430120A3814042A5E70F69002FA1D033
S11330E00B680F60DB1B01930023920700D14B692F
S11330F0A360019B002B00DC94E7019B3A00216A4A
S11331002800A66AB047002803DC4023A2891343A1
S1133110DFE7019B3F181B1A0193EAE701004020F7
S11331200B6970B505000C00002B01D1002070BDA7
S1133130002804D08369002B01D100F05FF80B4B09
S11331409C4209D16C680C22A35E002BEED02100B6
S11331502800FFF75BFFEAE7054B9C4201D1AC680E
S1133160F1E7044B9C42EED1EC68ECE7103E000022
S1133170303E0000F03D000010B5024900F0B2F806
S113318010BDC04621310000002310B504000360C7
S11331904360836081814366C281036143618361CB
S11331A0190008225C30FFF723FD054B246263629B
S11331B0044BA362044BE362044B236310BDC0467B
S11331C0153B00003D3B0000753B0000A13B0000A7
S11331D070B568254A1E55430E002900743100F06D
S11331E05DF9041E08D000212A00016046600C30FD
S11331F0A0606832FFF7FCFC200070BD836913B542
S11332000400002B28D18364C3640365134B144A60
S11332101B6882620193984201D1012383612000DB
S113322000F020F86060200000F01CF8A06020008E
S113323000F018F80022E06004216068FFF7A4FFA2
S113324001220921A068FFF79FFF02221221E068F2
S1133250FFF79AFF0123A36113BDC046EC3D0000B4
S113326079310000F8B51E4B07001E68B369002BC6
S113327002D13000FFF7C2FF4836B4687368013BDF
S113328004D53368002B07D03668F6E70C22A55E18
S1133290002D0DD06834F2E704213800FFF798FFC1
S11332A030600028F0D10C2304003B602000F8BDFE
S11332B0012320005B42E3810233A381656625601C
S11332C0A560656025616561A561082229005C30FF
S11332D0FFF78EFC6563A563A564E564E6E7C04675
S11332E0EC3D0000F7B504000700002601914834C6
S11332F0002C01D13000FEBD6368A5680093009BDB
S1133300013B009301D52468F2E7AB89012B08D96E
S11333100E22AB5E013304D029003800019B98478C
S113332006436835EBE7000070B50E001D000E2360
S1133330C95E90B01400002907DA00232B60B3891A
S11333401B0611D48023DB000FE001AA00F054FC1B
S11333500028F2DBF022029B12021340054A9B185C
S11333605A4253412B60EDE740230020236010B004
S113337070BDC04600E0FFFFF7B502268B8905004B
S11333800C00334206D0230047332360236101231A
S11333906361F7BD01AB6A46FFF7C6FF00990700FA
S11333A0280000F07BF8002806D10C22A35E9A05C1
S11333B0EFD41E43A681E6E70D4BAB628023A289BE
S11333C020601343A381009B20616361019B002B58
S11333D00AD00E23E15E280000F020FC002803D070
S11333E00123A2891343A381A0893843A081D0E794
S11333F07931000010B5034B0100186800F04EF855
S113340010BDC0460400002070B50500002910D08E
S11334100C1F2368002B00DAE418280000F02FFCAE
S11334201D4A1368002B05D163601460280000F066
S113343027FC70BDA34209D9216860188342F3D1E7
S113344018685B6841182160EEE713005A68002A87
S113345001D0A242F9D919685818A0420BD12068AA
S11334600918581819608242E0D11068526841184E
S113347019605A60DAE7A04202D90C232B60D5E721
S113348021686018824203D1106852684118216093
S113349062605C60CAE7C046C4000020032370B5C4
S11334A0CD1C9D43083506000C2D1ED20C25A942C7
S11334B01DD8300000F0E3FB254A146821000029E0
S11334C019D1244C2368002B03D1300000F010FBE9
S11334D020602900300000F00BFB431C2CD10C238E
S11334E03000336000F0CCFB03E0002DDFDA0C2366
S11334F03360002070BD0B685B1B1AD40B2B03D9FF
S11335000B60CC18256003E08C420ED16368136015
S1133510300000F0B5FB200007220B30231D904340
S1133520C31AE7D05A42E250E4E74B6863600C00E8
S1133530EEE70C004968C2E70323C41C9C43A04285
S1133540E0D0211A300000F0D3FA431CDAD1C6E7E8
S1133550C4000020C8000020936810B5013B9360AC
S1133560002B05DA9469A34208DBCBB20A2B05D001
S11335701368581C10601970C8B210BDFFF77AFCAC
S1133580FBE7F8B506000F001400D518AC4201D1D2
S1133590002007E021783A003000FFF7DDFF013416
S11335A0431CF3D1F8BD0000F0B59FB006000F0036
S11335B014000593002804D08369002B01D1FFF780
S11335C01DFE7F4B9F425CD17768BB891B0762D588
S11335D03B69002B5FD0002306AD6B6120336B7613
S11335E01033AB760294029C2378002B5DD1029BAE
S11335F0E31A04930DD0049B029A39003000FFF7BC
S1133600C0FF431C00D1CCE06A69049B9446634428
S11336106B612378002B00D1C3E0012200235242C6
S11336206A6002A95432521801342B60EB60AB601B
S11336301370AB6521780522624800F015FB631C0A
S11336409C46002835D12968CB0604D5532302AA09
S113365020309B1818700B0704D553232B2002AA83
S11336609B18187023782A2B2CD000200A21099B40
S11336702278303A092A00D86BE000282AD009932E
S113368028E0514B9F4201D1B7689EE74F4B9F42C0
S11336909BD1F76899E739003000FFF741FC002817
S11336A099D0012040421FB0F0BD252B9FD001349A
S11336B09AE7444B2968C01A012383400B432B60CB
S11336C06446B7E7059B181D1B680590002B3ADB81
S11336D00993644623782E2B0BD16378621C2A2B22
S11336E03FD1059B02341A1D1B680592002B35DB64
S11336F0079321780322364800F0B6FA002807D051
S1133700334B2A68C01A4023834013432B6001348F
S11337102178631C06222F480293297600F0A4FA2C
S1133720002844D02C4B002B2FD12968059B07225D
S1133730C90528D59B189343083305936B69039AED
S11337409B186B614FE75B42EB6002230B432B60DA
S1133750BFE74B4301349B18012089E701235B42F7
S1133760C6E7002314000A201A006B602178303960
S1133770092903D9002BBCD00792BAE7424301348C
S113378052180123F2E70733D5E705AB00933A005B
S1133790124B2900300000E000BF0390039B01336B
S11337A0CCD1BB895B0600D57BE70B987BE705ABE7
S11337B000933A00094B2900300000F07FF8ECE751
S11337C0103E0000503E0000303E0000F03D00007E
S11337D0563E00005A3E0000000000008335000001
S11337E0F7B5150001938A680B6900900C009342A9
S11337F000DA130022002B6043321278002A01D031
S113380001332B6023689B0602D52B6802332B609F
S1133810062723681F4027D0230043331B785A1EF2
S113382093412268920630D42200019943320098D1
S1133830089EB047431C25D0062320682A68E16807
S113384003400025042B03D18D1AEB43DB171D40E5
S1133850A3682269934201DD9B1AED180027BD423B
S113386020D1002010E00137E3682A689B1A9F42A8
S1133870D2DA22000123193201990098089EB04738
S1133880431CF0D101204042FEBD3020E1184331F9
S1133890087021005A1C45310978A21843320233BA
S11338A01170C1E7220001231A3201990098089E81
S11338B0B047431CE6D00137D1E70000F0B58BB028
S11338C006920A0043320793059004920A7E0C0084
S11338D0109B6E2A00D18FE017D8632A2CD008D809
S11338E0002A00D199E0582A54D02600423632707A
S11338F029E0642A01D0692AF7D121681A680806E8
S113390023D5111D1960156825E0732A00D188E0BC
S113391008D86F2A29D0702AE7D1202209680A43DF
S1133920226003E0752A20D0782ADED12200782193
S1133930453211706C4A30E00E001A684236111D8F
S1133940196013683370012379E04906D9D5111D34
S113395019600023D55E002D03DA2D23049A6D42ED
S11339601370624B0A2703932FE020681968050639
S113397003D5081D18600D6805E04006F9D50D68EB
S1133980081D1860ADB2594B082703936F2A18D04D
S11339900A2716E045310A70544A03921A682168CE
S11339A0101D18601568080622D5CB0702D5202300
S11339B0194321601027002D03D1202322689A4344
S11339C022602300002243331A706368A360002B33
S11339D05CDB0422216891432160002D58D1049EB0
S11339E0002B64D02600039B42361B7833705EE0C4
S11339F04806DAD5ADB2D8E709681A68080605D5CD
S1133A00111D1960136862691A6006E04906F7D54A
S1133A10111D19601368A28A1A800023049E236171
S1133A2054E01A68111D196016680021626830009C
S1133A3000F01AF9002801D0801B606063682361DC
S1133A400023049A137041E0236932000699059813
S1133A50079DA847431C43D0236800259B070FD428
S1133A60099BE06898423DDA18003BE022000123FC
S1133A70193206990598079EB047431C30D001358A
S1133A80E368099A9B1A9D42F0DBE9E7002DA9D06F
S1133A90049E28003900FDF7E3FD039B013E5B5CB7
S1133AA0280033703900FDF755FD051EF1D1082FAC
S1133AB009D12368DB0706D563682269934202DCD7
S1133AC03023013E3370049B9B1B2361079B09AA8F
S1133AD000932100069B0598FFF782FE431CB3D197
S1133AE0012040420BB0F0BD723E0000613E000078
S1133AF0002370B5064C050008002360FDF73EFC6A
S1133B00431C03D12368002B00D02B6070BDC0463A
S1133B106401002070B50C000E25495F00F0B2F876
S1133B20002803DB636D1B18636570BDA389024A1B
S1133B301340A381F9E7C046FFEFFFFFF8B51F006C
S1133B408B8905000C001600DB0505D50E23C95E24
S1133B500022022300F074F8A389054A28001340C8
S1133B60A38132000E23E15E3B0000F01FF8F8BD94
S1133B70FFEFFFFF70B50C000E25495F00F060F801
S1133B80A389421C03D1054A1340A38170BD80223E
S1133B9052011343A3816065F8E7C046FFEFFFFFBE
S1133BA010B50E23C95E00F015F810BD70B5050000
S1133BB0080011000022064C22601A00FCF786FC63
S1133BC0431C03D12368002B00D02B6070BDC0467A
S1133BD064010020002370B5064C05000800236032
S1133BE0FDF7DEFB431C03D12368002B00D02B60C0
S1133BF070BDC04664010020002370B5064C05006A
S1133C00080011002360FDF7CEFB431C03D1236899
S1133C10002B00D02B6070BD64010020002370B520
S1133C20064C050008002360FDF7C2FB431C03D1CA
S1133C302368002B00D02B6070BDC04664010020B7
S1133C4070B50500080011000022064C22601A001D
S1133C50FDF7B0FB431C03D12368002B00D02B607D
S1133C6070BDC04664010020C9B28218904201D1DF
S1133C700020704703788B42FBD00130F6E7704791
S1133C807047000070B50500080011000022064CC2
S1133C9022601A00FCF7F8FB431C03D12368002BB5
S1133CA000D02B6070BDC0466401002000080042B3
S1133CB0000C0042001000420014004200180042B0
S1133CC0001C004225642C25642C25642C25640DDD
S1133CD00A0000000A0D0000060D0000060D000099
S1133CE0680D0000680D00001E0D0000100D00009E
S1133CF0240D0000560D0000F00D0000D00D000052
S1133D00D00D00005C0E0000E20D0000FE0D00006E
S1133D10D40D00000C0E00004C0E000068656C6CA5
S1133D206F0000004C4544204F4E0D00E019000088
S1133D3030190000301900002E190000D2190000BB
S1133D40D2190000C81900002E190000D219000071
S1133D50C8190000D21900002E190000D81900005B
S1133D60D8190000D8190000681A00006420000067
S1133D7046200000002000001E1F0000002000005C
S1133D8038200000002000001E1F00004620000014
S1133D9046200000382000001E1F0000161F0000EF
S1133DA0161F0000161F00007C220000C42600001D
S1133DB08425000084250000802500009C26000046
S1133DC09C2600008E260000802500009C26000012
S1133DD08E2600009C26000080250000A4260000FA
S1133DE0A4260000A4260000A82800000800002043
S1133DF000000000000000000000000000000000BF
S1133E0000000000000000000000000000000000AE
S1133E10000000000000000000000000000000009E
S1133E20000000000000000000000000000000008E
S1133E30000000000000000000000000000000007E
S1133E40000000000000000000000000000000006E
S1133E50232D302B2000686C4C006566674546476F
S1133E6000303132333435363738394142434445F2
S1133E704600303132333435363738396162636461
S1133E8065660000F8B5C046F8BC08BC9E4670479D
S1133E90DD000000F8B5C046F8BC08BC9E4670477B
S1073EA0B500000065
S1133EA4010000000800002000000000103E000093
S1133EB4303E0000F03D000000000000000000005F
S1133EC400000000000000000000000000000000EA
S1133ED400000000000000000000000000000000DA
S1133EE400000000000000000000000000000000CA
S1133EF400000000000000000000000000000000BA
S10B3F040000000000000000B1
S903129951
